{
  "contractName": "Checker",
  "abi": [
    {
      "inputs": [],
      "payable": false,
      "stateMutability": "nonpayable",
      "type": "constructor"
    },
    {
      "constant": false,
      "inputs": [
        {
          "name": "jsonx",
          "type": "string"
        }
      ],
      "name": "check",
      "outputs": [
        {
          "name": "",
          "type": "uint256"
        }
      ],
      "payable": false,
      "stateMutability": "nonpayable",
      "type": "function"
    }
  ],
  "bytecode": "0x60806040526040518060600160405280603e8152602001620019cd603e913960009080519060200190620000359291906200004a565b503480156200004357600080fd5b50620000f9565b828054600181600116156101000203166002900490600052602060002090601f016020900481019282601f106200008d57805160ff1916838001178555620000be565b82800160010185558215620000be579182015b82811115620000bd578251825591602001919060010190620000a0565b5b509050620000cd9190620000d1565b5090565b620000f691905b80821115620000f2576000816000905550600101620000d8565b5090565b90565b6118c480620001096000396000f3fe608060405234801561001057600080fd5b506004361061002b5760003560e01c8063b6f921ad14610030575b600080fd5b61004a600480360361004591908101906117ad565b610060565b60405161005791906117fd565b60405180910390f35b6000806060600061010c60008054600181600116156101000203166002900480601f0160208091040260200160405190810160405280929190818152602001828054600181600116156101000203166002900480156101005780601f106100d557610100808354040283529160200191610100565b820191906000526020600020905b8154815290600101906020018083116100e357829003601f168201915b5050505050600a610123565b809350819450829550505050809350505050919050565b600060606000606085905060006101386116a8565b61014187610d47565b809650819250505060008082602001519050600061015d6116c9565b5b865185600001511015610d2a5760008786600001518151811061017d57fe5b602001015160f81c60f81b9050607b60f81b817effffffffffffffffffffffffffffffffffffffffffffffffffffffffffffff191614806101e35750605b60f81b817effffffffffffffffffffffffffffffffffffffffffffffffffffffffffffff1916145b156103095783806001019450506101fa868b610de4565b8093508198505050866102225760038a60008090509a509a509a505050505050505050610d40565b7fffffffffffffffffffffffffffffffffffffffffffffffffffffffffffffffff86604001511461027b578986604001518151811061025d57fe5b602002602001015160a001805180919060010160ff1660ff16815250505b607b60f81b817effffffffffffffffffffffffffffffffffffffffffffffffffffffffffffff1916146102af5760026102b2565b60015b826000019060048111156102c257fe5b908160048111156102cf57fe5b8152505085600001518260200181815250506001826040019015159081151581525050600186602001510386604001818152505050610d15565b607d60f81b817effffffffffffffffffffffffffffffffffffffffffffffffffffffffffffff191614806103625750605d60f81b817effffffffffffffffffffffffffffffffffffffffffffffffffffffffffffff1916145b15610583576000607d60f81b827effffffffffffffffffffffffffffffffffffffffffffffffffffffffffffff19161461039d5760026103a0565b60015b90506000809050600188602001510394505b600085106104af578b85815181106103c657fe5b60200260200101519350836040015180156103e357508360800151155b156104a1578160048111156103f457fe5b8460000151600481111561040457fe5b146104265760018c60008090509c509c509c5050505050505050505050610d40565b7fffffffffffffffffffffffffffffffffffffffffffffffffffffffffffffffff88604001818152505060018860000151018c868151811061046457fe5b6020026020010151606001818152505060018c868151811061048257fe5b60200260200101516080019015159081151581525050600190506104af565b8480600190039550506103b2565b806104d15760018c60008090509c509c509c5050505050505050505050610d40565b5b6000851115610526578b85815181106104e757fe5b602002602001015193508360400151801561050457508360800151155b156105185784886040018181525050610526565b8480600190039550506104d2565b600085141561057b578b858151811061053b57fe5b602002602001015193508360400151801561055857508360800151155b1561057a57846fffffffffffffffffffffffffffffffff168860400181815250505b5b505050610d15565b7f2200000000000000000000000000000000000000000000000000000000000000817effffffffffffffffffffffffffffffffffffffffffffffffffffffffffffff19161415610663576105d8868b8a610eab565b9450600085146105fc57848a60008090509a509a509a505050505050505050610d40565b83806001019450507fffffffffffffffffffffffffffffffffffffffffffffffffffffffffffffffff86604001511461065d578986604001518151811061063f57fe5b602002602001015160a001805180919060010160ff1660ff16815250505b50610d15565b7f2000000000000000000000000000000000000000000000000000000000000000817effffffffffffffffffffffffffffffffffffffffffffffffffffffffffffff191614806106d85750601160f81b817effffffffffffffffffffffffffffffffffffffffffffffffffffffffffffff1916145b806107085750601260f81b817effffffffffffffffffffffffffffffffffffffffffffffffffffffffffffff1916145b806107385750601460f81b817effffffffffffffffffffffffffffffffffffffffffffffffffffffffffffff1916145b156107435750610d15565b7f3a00000000000000000000000000000000000000000000000000000000000000817effffffffffffffffffffffffffffffffffffffffffffffffffffffffffffff191614156107a457600186602001510386604001818152505050610d15565b7f2c00000000000000000000000000000000000000000000000000000000000000817effffffffffffffffffffffffffffffffffffffffffffffffffffffffffffff1916141561097b577fffffffffffffffffffffffffffffffffffffffffffffffffffffffffffffffff86604001511415801561085457506002600481111561082a57fe5b8a87604001518151811061083a57fe5b602002602001015160000151600481111561085157fe5b14155b801561089257506001600481111561086857fe5b8a87604001518151811061087857fe5b602002602001015160000151600481111561088f57fe5b14155b1561097557600186602001510392505b6000831061097457600260048111156108b757fe5b8a84815181106108c357fe5b60200260200101516000015160048111156108da57fe5b14806109135750600160048111156108ee57fe5b8a84815181106108fa57fe5b602002602001015160000151600481111561091157fe5b145b156109665789838151811061092457fe5b6020026020010151604001518015610951575089838151811061094357fe5b602002602001015160800151155b156109655782866040018181525050610974565b5b8280600190039350506108a2565b5b50610d15565b7f3000000000000000000000000000000000000000000000000000000000000000817effffffffffffffffffffffffffffffffffffffffffffffffffffffffffffff191610158015610a0f57507f3900000000000000000000000000000000000000000000000000000000000000817effffffffffffffffffffffffffffffffffffffffffffffffffffffffffffff191611155b80610a5b57507f2d00000000000000000000000000000000000000000000000000000000000000817effffffffffffffffffffffffffffffffffffffffffffffffffffffffffffff1916145b80610aa757507f6600000000000000000000000000000000000000000000000000000000000000817effffffffffffffffffffffffffffffffffffffffffffffffffffffffffffff1916145b80610af357507f7400000000000000000000000000000000000000000000000000000000000000817effffffffffffffffffffffffffffffffffffffffffffffffffffffffffffff1916145b80610b3f57507f6e00000000000000000000000000000000000000000000000000000000000000817effffffffffffffffffffffffffffffffffffffffffffffffffffffffffffff1916145b15610c97577fffffffffffffffffffffffffffffffffffffffffffffffffffffffffffffffff866040015114610c015789866040015181518110610b7f57fe5b6020026020010151915060016004811115610b9657fe5b82600001516004811115610ba657fe5b1480610be0575060036004811115610bba57fe5b82600001516004811115610bca57fe5b148015610bdf575060008260a0015160ff1614155b5b15610c005760018a60008090509a509a509a505050505050505050610d40565b5b610c0c868b8a611342565b945060008514610c3057848a60008090509a509a509a505050505050505050610d40565b83806001019450507fffffffffffffffffffffffffffffffffffffffffffffffffffffffffffffffff866040015114610c915789866040015181518110610c7357fe5b602002602001015160a001805180919060010160ff1660ff16815250505b50610d15565b602060f81b817effffffffffffffffffffffffffffffffffffffffffffffffffffffffffffff191610158015610cf35750607e60f81b817effffffffffffffffffffffffffffffffffffffffffffffffffffffffffffff191611155b15610d135760018a60008090509a509a509a505050505050505050610d40565b505b8460000180518091906001018152505061015e565b6000898660200151995099509950505050505050505b9250925092565b610d4f6116a8565b6060610d596116a8565b604051806060016040528060008152602001600081526020017fffffffffffffffffffffffffffffffffffffffffffffffffffffffffffffffff8152509050606084604051908082528060200260200182016040528015610dd457816020015b610dc1611711565b815260200190600190039081610db95790505b5090508181935093505050915091565b6000610dee6116c9565b8251846020015110610e2057600083600185510381518110610e0c57fe5b602002602001015180905091509150610ea4565b610e286116c9565b6040518060c0016040528060006004811115610e4057fe5b81526020016000815260200160001515815260200160008152602001600015158152602001600060ff1681525090508084866020015181518110610e8057fe5b60200260200101819052508460200180518091906001018152505060018192509250505b9250929050565b600080846000015190506000610ebf6116c9565b866000018051809190600101815250505b84518760000151101561132957600085886000015181518110610eef57fe5b602001015160f81c60f81b90507f2200000000000000000000000000000000000000000000000000000000000000817effffffffffffffffffffffffffffffffffffffffffffffffffffffffffffff19161415610f9557610f508888610de4565b809350819450505082610f745783886000018181525050600394505050505061133b565b610f88826003600187018b60000151611637565b600094505050505061133b565b605c8160f81c60ff16148015610fb2575085516001896000015101105b1561131257876000018051809190600101815250507f220000000000000000000000000000000000000000000000000000000000000086896000015181518110610ff857fe5b602001015160f81c60f81b7effffffffffffffffffffffffffffffffffffffffffffffffffffffffffffff1916148061108c57507f2f000000000000000000000000000000000000000000000000000000000000008689600001518151811061105d57fe5b602001015160f81c60f81b7effffffffffffffffffffffffffffffffffffffffffffffffffffffffffffff1916145b806110f257507f5c00000000000000000000000000000000000000000000000000000000000000868960000151815181106110c357fe5b602001015160f81c60f81b7effffffffffffffffffffffffffffffffffffffffffffffffffffffffffffff1916145b8061115857507f66000000000000000000000000000000000000000000000000000000000000008689600001518151811061112957fe5b602001015160f81c60f81b7effffffffffffffffffffffffffffffffffffffffffffffffffffffffffffff1916145b806111be57507f72000000000000000000000000000000000000000000000000000000000000008689600001518151811061118f57fe5b602001015160f81c60f81b7effffffffffffffffffffffffffffffffffffffffffffffffffffffffffffff1916145b8061122457507f6e00000000000000000000000000000000000000000000000000000000000000868960000151815181106111f557fe5b602001015160f81c60f81b7effffffffffffffffffffffffffffffffffffffffffffffffffffffffffffff1916145b8061128a57507f62000000000000000000000000000000000000000000000000000000000000008689600001518151811061125b57fe5b602001015160f81c60f81b7effffffffffffffffffffffffffffffffffffffffffffffffffffffffffffff1916145b806112f057507f7400000000000000000000000000000000000000000000000000000000000000868960000151815181106112c157fe5b602001015160f81c60f81b7effffffffffffffffffffffffffffffffffffffffffffffffffffffffffffff1916145b156112fb5750611314565b83886000018181525050600194505050505061133b565b505b86600001805180919060010181525050610ed0565b82876000018181525050600293505050505b9392505050565b6000806000905060008560000151905060008061135d6116c9565b5b8651896000015110156115b8578689600001518151811061137b57fe5b602001015160f81c60f81b92507f2000000000000000000000000000000000000000000000000000000000000000837effffffffffffffffffffffffffffffffffffffffffffffffffffffffffffff1916148061141957507f0900000000000000000000000000000000000000000000000000000000000000837effffffffffffffffffffffffffffffffffffffffffffffffffffffffffffff1916145b8061146557507f0a00000000000000000000000000000000000000000000000000000000000000837effffffffffffffffffffffffffffffffffffffffffffffffffffffffffffff1916145b806114b157507f0d00000000000000000000000000000000000000000000000000000000000000837effffffffffffffffffffffffffffffffffffffffffffffffffffffffffffff1916145b806114fd57507f2c00000000000000000000000000000000000000000000000000000000000000837effffffffffffffffffffffffffffffffffffffffffffffffffffffffffffff1916145b8061152d5750607d60f81b837effffffffffffffffffffffffffffffffffffffffffffffffffffffffffffff1916145b8061155d5750605d60f81b837effffffffffffffffffffffffffffffffffffffffffffffffffffffffffffff1916145b1561156b57600194506115b8565b60208360f81c60ff1610806115865750607f8360f81c60ff16115b156115a35783896000018181525050600195505050505050611630565b8860000180518091906001018152505061135e565b846115d55783896000018181525050600295505050505050611630565b6115df8989610de4565b8092508193505050816116045783896000018181525050600395505050505050611630565b611615816004868c60000151611637565b88600001805180919060019003815250506000955050505050505b9392505050565b828460000190600481111561164857fe5b9081600481111561165557fe5b8152505081846020018181525050600184604001901515908115158152505080846060018181525050600184608001901515908115158152505060008460a0019060ff16908160ff168152505050505050565b60405180606001604052806000815260200160008152602001600081525090565b6040518060c00160405280600060048111156116e157fe5b81526020016000815260200160001515815260200160008152602001600015158152602001600060ff1681525090565b6040518060c001604052806000600481111561172957fe5b81526020016000815260200160001515815260200160008152602001600015158152602001600060ff1681525090565b600082601f83011261176a57600080fd5b813561177d61177882611845565b611818565b9150808252602083016020830185838301111561179957600080fd5b6117a483828461187b565b50505092915050565b6000602082840312156117bf57600080fd5b600082013567ffffffffffffffff8111156117d957600080fd5b6117e584828501611759565b91505092915050565b6117f781611871565b82525050565b600060208201905061181260008301846117ee565b92915050565b6000604051905081810181811067ffffffffffffffff8211171561183b57600080fd5b8060405250919050565b600067ffffffffffffffff82111561185c57600080fd5b601f19601f8301169050602081019050919050565b6000819050919050565b8281833760008383015250505056fea265627a7a72305820b23e093f40de216cf9fed4d8b8a07517f9c76f6398f69a69b03e9bca44a9c7236c6578706572696d656e74616cf500377b20226b657931223a207b20226b6579312e31223a202276616c7565222c20226b6579312e32223a20332c20226b6579312e33223a2074727565207d207d",
  "source": "pragma solidity ^0.5.7;\npragma experimental ABIEncoderV2;\n\nimport \"jsmnsol-lib/JsmnSolLib.sol\";\n\ncontract Checker{\n\n    string json = \"{ \\\"key1\\\": { \\\"key1.1\\\": \\\"value\\\", \\\"key1.2\\\": 3, \\\"key1.3\\\": true } }\";\n    \n    constructor() public{\n        \n    }\n    \n    function check(string memory jsonx) public returns (uint){\n        \n        uint returnCode;\n        JsmnSolLib.Token[] memory tokens;\n        uint actualNumber;\n        \n        //Pass string containing JSON, & maximum number of tokens\n        (returnCode, tokens, actualNumber) = JsmnSolLib.parse(json, 10);\n        \n        return actualNumber;\n    }\n\n}",
  "sourcePath": "/Users/LaunchZone/Truffle/Raptor/contracts/Checker.sol",
  "compiler": {
    "name": "solc",
    "version": "0.5.8+commit.23d335f2.Emscripten.clang"
  },
  "schemaVersion": "3.0.16",
  "updatedAt": "2019-11-23T18:02:20.303Z",
  "devdoc": {
    "methods": {}
  },
  "userdoc": {
    "methods": {}
  }
}