{
  "contractName": "Raptor",
  "abi": [
    {
      "inputs": [
        {
          "name": "_smellTrackerAddress",
          "type": "address"
        }
      ],
      "payable": false,
      "stateMutability": "nonpayable",
      "type": "constructor"
    },
    {
      "constant": false,
      "inputs": [
        {
          "name": "initialSmellReport",
          "type": "string"
        },
        {
          "name": "rewardPerSmell",
          "type": "uint256"
        }
      ],
      "name": "setup",
      "outputs": [
        {
          "name": "",
          "type": "bool"
        }
      ],
      "payable": true,
      "stateMutability": "payable",
      "type": "function"
    },
    {
      "constant": false,
      "inputs": [
        {
          "name": "smellReport",
          "type": "string"
        },
        {
          "name": "isInitial",
          "type": "bool"
        }
      ],
      "name": "checkSmells",
      "outputs": [
        {
          "name": "",
          "type": "uint256"
        }
      ],
      "payable": true,
      "stateMutability": "payable",
      "type": "function"
    }
  ],
  "bytecode": "0x608060405267016345785d8a00006000556000600160006101000a81548160ff0219169083151502179055506040518060600160405280603e81526020016103b4603e9139600290805190602001906100599291906100de565b5034801561006657600080fd5b506040516020806103f28339810180604052602081101561008657600080fd5b810190808051906020019092919050505080600360006101000a81548173ffffffffffffffffffffffffffffffffffffffff021916908373ffffffffffffffffffffffffffffffffffffffff16021790555050610183565b828054600181600116156101000203166002900490600052602060002090601f016020900481019282601f1061011f57805160ff191683800117855561014d565b8280016001018555821561014d579182015b8281111561014c578251825591602001919060010190610131565b5b50905061015a919061015e565b5090565b61018091905b8082111561017c576000816000905550600101610164565b5090565b90565b610222806101926000396000f3fe6080604052600436106100295760003560e01c8063361437791461002e5780637deb39171461010b575b600080fd5b6100f16004803603604081101561004457600080fd5b810190808035906020019064010000000081111561006157600080fd5b82018360208201111561007357600080fd5b8035906020019184600183028401116401000000008311171561009557600080fd5b91908080601f016020809104026020016040519081016040528093929190818152602001838380828437600081840152601f19601f820116905080830192505050505050509192919290803590602001909291905050506101e6565b604051808215151515815260200191505060405180910390f35b6101d06004803603604081101561012157600080fd5b810190808035906020019064010000000081111561013e57600080fd5b82018360208201111561015057600080fd5b8035906020019184600183028401116401000000008311171561017257600080fd5b91908080601f016020809104026020016040519081016040528093929190818152602001838380828437600081840152601f19601f8201169050808301925050505050505091929192908035151590602001909291905050506101ee565b6040518082815260200191505060405180910390f35b600092915050565b60009291505056fea165627a7a7230582048eb9beb882b8c0d8752e9d16dca4b42452115c9cff9f9d55d94c9cccda9beaa00297b20226b657931223a207b20226b6579312e31223a202276616c7565222c20226b6579312e32223a20332c20226b6579312e33223a2074727565207d207d",
  "source": "pragma solidity ^0.5.7;\n\nimport \"./SmellTracker.sol\";\n\ncontract Raptor{\n    \n    uint rewardPreSmell = 100000000000000000;\n    bool wasSet = false;\n    string json = \"{ \\\"key1\\\": { \\\"key1.1\\\": \\\"value\\\", \\\"key1.2\\\": 3, \\\"key1.3\\\": true } }\";\n    \n    //Address of smell tracker for later use\n    address smellTrackerAddress;\n    \n    constructor(address _smellTrackerAddress) public{\n        //Save address of smell tracker to allow use\n        smellTrackerAddress = _smellTrackerAddress;\n    }\n    \n    //=====\n    //State modification\n    //=====\n    \n    //initial setup for contract\n    function setup(string memory initialSmellReport, uint rewardPerSmell) public payable returns (bool){\n        //require();\n        //return Checker.check(json);\n    }\n    \n    //Used to update smell report\n    function checkSmells(string memory smellReport, bool isInitial) public payable returns (uint){\n        //require();\n    }\n    \n    //To be called to reward for removing smells\n    function reward(uint smellsRemoved) private returns (bool){\n        \n    }\n    \n}\n",
  "sourcePath": "/Users/LaunchZone/Truffle/Nose/Nose/contracts/Raptor.sol",
  "compiler": {
    "name": "solc",
    "version": "0.5.8+commit.23d335f2.Emscripten.clang"
  },
  "schemaVersion": "3.0.16",
  "updatedAt": "2019-11-23T21:57:45.011Z",
  "devdoc": {
    "methods": {}
  },
  "userdoc": {
    "methods": {}
  }
}