{
  "contractName": "Raptor",
  "abi": [
    {
      "inputs": [
        {
          "name": "_smellTrackerAddress",
          "type": "address"
        }
      ],
      "payable": false,
      "stateMutability": "nonpayable",
      "type": "constructor"
    },
    {
      "constant": false,
      "inputs": [],
      "name": "suck",
      "outputs": [
        {
          "name": "",
          "type": "uint256"
        }
      ],
      "payable": false,
      "stateMutability": "nonpayable",
      "type": "function"
    },
    {
      "constant": false,
      "inputs": [
        {
          "name": "initialSmellJson",
          "type": "string"
        },
        {
          "name": "rewardPerSmell",
          "type": "uint256"
        }
      ],
      "name": "setup",
      "outputs": [
        {
          "name": "",
          "type": "bool"
        }
      ],
      "payable": true,
      "stateMutability": "payable",
      "type": "function"
    },
    {
      "constant": false,
      "inputs": [
        {
          "name": "smellJson",
          "type": "string"
        },
        {
          "name": "isInitial",
          "type": "bool"
        }
      ],
      "name": "checkSmells",
      "outputs": [
        {
          "name": "",
          "type": "uint256"
        }
      ],
      "payable": true,
      "stateMutability": "payable",
      "type": "function"
    }
  ],
  "bytecode": "0x608060405267016345785d8a00006000556000600160006101000a81548160ff0219169083151502179055506040518060600160405280603e8152602001610524603e9139600290805190602001906100599291906100de565b5034801561006657600080fd5b506040516020806105628339810180604052602081101561008657600080fd5b810190808051906020019092919050505080600360006101000a81548173ffffffffffffffffffffffffffffffffffffffff021916908373ffffffffffffffffffffffffffffffffffffffff16021790555050610183565b828054600181600116156101000203166002900490600052602060002090601f016020900481019282601f1061011f57805160ff191683800117855561014d565b8280016001018555821561014d579182015b8281111561014c578251825591602001919060010190610131565b5b50905061015a919061015e565b5090565b61018091905b8082111561017c576000816000905550600101610164565b5090565b90565b610392806101926000396000f3fe6080604052600436106100345760003560e01c8063361437791461003957806351f8c7f6146101165780637deb391714610141575b600080fd5b6100fc6004803603604081101561004f57600080fd5b810190808035906020019064010000000081111561006c57600080fd5b82018360208201111561007e57600080fd5b803590602001918460018302840111640100000000831117156100a057600080fd5b91908080601f016020809104026020016040519081016040528093929190818152602001838380828437600081840152601f19601f8201169050808301925050505050505091929192908035906020019092919050505061021c565b604051808215151515815260200191505060405180910390f35b34801561012257600080fd5b5061012b610224565b6040518082815260200191505060405180910390f35b6102066004803603604081101561015757600080fd5b810190808035906020019064010000000081111561017457600080fd5b82018360208201111561018657600080fd5b803590602001918460018302840111640100000000831117156101a857600080fd5b91908080601f016020809104026020016040519081016040528093929190818152602001838380828437600081840152601f19601f82011690508083019250505050505050919291929080351515906020019092919050505061035e565b6040518082815260200191505060405180910390f35b600092915050565b6000600360009054906101000a900473ffffffffffffffffffffffffffffffffffffffff1673ffffffffffffffffffffffffffffffffffffffff166396b6092a60026040518263ffffffff1660e01b815260040180806020018281038252838181546001816001161561010002031660029004815260200191508054600181600116156101000203166002900480156102fe5780601f106102d3576101008083540402835291602001916102fe565b820191906000526020600020905b8154815290600101906020018083116102e157829003601f168201915b505092505050602060405180830381600087803b15801561031e57600080fd5b505af1158015610332573d6000803e3d6000fd5b505050506040513d602081101561034857600080fd5b8101908080519060200190929190505050905090565b60009291505056fea165627a7a723058204c080d7de1f7491ff216be4a605673a9baf57a5d6ed6937422ef96a1363b1a2500297b20226b657931223a207b20226b6579312e31223a202276616c7565222c20226b6579312e32223a20332c20226b6579312e33223a2074727565207d207d",
  "source": "pragma solidity ^0.5.7;\n\nimport \"./SmellTracker.sol\";\n\ncontract Raptor{\n    \n    uint reward = 100000000000000000;\n    bool wasSet = false;\n    string json = \"{ \\\"key1\\\": { \\\"key1.1\\\": \\\"value\\\", \\\"key1.2\\\": 3, \\\"key1.3\\\": true } }\";\n    \n    address smellTrackerAddress;\n    \n    constructor(address _smellTrackerAddress) public{\n        smellTrackerAddress = _smellTrackerAddress;\n    }\n    \n    function suck() public returns (uint){\n        return SmellTracker(smellTrackerAddress).checkSmells(json);\n        //return 0;\n    }\n    \n    \n    //=====\n    //State modification\n    //=====\n    \n    function setup(string memory initialSmellJson, uint rewardPerSmell) public payable returns (bool){\n        //require();\n        //return Checker.check(json);\n    }\n    \n    function checkSmells(string memory smellJson, bool isInitial) public payable returns (uint){\n        //require();\n    }\n    \n}",
  "sourcePath": "/Users/LaunchZone/Truffle/Raptor/contracts/Raptor.sol",
  "compiler": {
    "name": "solc",
    "version": "0.5.8+commit.23d335f2.Emscripten.clang"
  },
  "schemaVersion": "3.0.16",
  "updatedAt": "2019-11-23T21:00:00.339Z",
  "devdoc": {
    "methods": {}
  },
  "userdoc": {
    "methods": {}
  }
}