{
  "contractName": "Raptor",
  "abi": [
    {
      "inputs": [
        {
          "name": "_smellTrackerAddress",
          "type": "address"
        }
      ],
      "payable": false,
      "stateMutability": "nonpayable",
      "type": "constructor"
    },
    {
      "constant": false,
      "inputs": [
        {
          "name": "initialSmellReport",
          "type": "string"
        },
        {
          "name": "rewardPerSmell",
          "type": "uint256"
        }
      ],
      "name": "setup",
      "outputs": [
        {
          "name": "",
          "type": "bool"
        }
      ],
      "payable": true,
      "stateMutability": "payable",
      "type": "function"
    },
    {
      "constant": false,
      "inputs": [],
      "name": "cancelProgram",
      "outputs": [
        {
          "name": "",
          "type": "bool"
        }
      ],
      "payable": true,
      "stateMutability": "payable",
      "type": "function"
    },
    {
      "constant": false,
      "inputs": [],
      "name": "status",
      "outputs": [
        {
          "name": "",
          "type": "bool"
        }
      ],
      "payable": false,
      "stateMutability": "nonpayable",
      "type": "function"
    },
    {
      "constant": false,
      "inputs": [
        {
          "name": "smellReport",
          "type": "string"
        },
        {
          "name": "isInitial",
          "type": "bool"
        }
      ],
      "name": "checkSmells",
      "outputs": [
        {
          "name": "",
          "type": "uint256"
        }
      ],
      "payable": true,
      "stateMutability": "payable",
      "type": "function"
    }
  ],
  "bytecode": "0x608060405260006001556000600260006101000a81548160ff0219169083151502179055506040518060600160405280603e81526020016108ab603e9139600390805190602001906100529291906100d7565b5034801561005f57600080fd5b506040516020806108e98339810180604052602081101561007f57600080fd5b810190808051906020019092919050505080600460006101000a81548173ffffffffffffffffffffffffffffffffffffffff021916908373ffffffffffffffffffffffffffffffffffffffff1602179055505061017c565b828054600181600116156101000203166002900490600052602060002090601f016020900481019282601f1061011857805160ff1916838001178555610146565b82800160010185558215610146579182015b8281111561014557825182559160200191906001019061012a565b5b5090506101539190610157565b5090565b61017991905b8082111561017557600081600090555060010161015d565b5090565b90565b6107208061018b6000396000f3fe60806040526004361061003f5760003560e01c8063200d2ed2146100445780633614377914610073578063592fb924146101505780637deb391714610172575b600080fd5b34801561005057600080fd5b5061005961024d565b604051808215151515815260200191505060405180910390f35b6101366004803603604081101561008957600080fd5b81019080803590602001906401000000008111156100a657600080fd5b8201836020820111156100b857600080fd5b803590602001918460018302840111640100000000831117156100da57600080fd5b91908080601f016020809104026020016040519081016040528093929190818152602001838380828437600081840152601f19601f82011690508083019250505050505050919291929080359060200190929190505050610264565b604051808215151515815260200191505060405180910390f35b610158610402565b604051808215151515815260200191505060405180910390f35b6102376004803603604081101561018857600080fd5b81019080803590602001906401000000008111156101a557600080fd5b8201836020820111156101b757600080fd5b803590602001918460018302840111640100000000831117156101d957600080fd5b91908080601f016020809104026020016040519081016040528093929190818152602001838380828437600081840152601f19601f820116905080830192505050505050509192919290803515159060200190929190505050610596565b6040518082815260200191505060405180910390f35b6000600260009054906101000a900460ff16905090565b6000600260009054906101000a900460ff161561028057600080fd5b336000806101000a81548173ffffffffffffffffffffffffffffffffffffffff021916908373ffffffffffffffffffffffffffffffffffffffff160217905550346001819055506000600460009054906101000a900473ffffffffffffffffffffffffffffffffffffffff1673ffffffffffffffffffffffffffffffffffffffff166396b6092a856040518263ffffffff1660e01b81526004018080602001828103825283818151815260200191508051906020019080838360005b8381101561035757808201518184015260208101905061033c565b50505050905090810190601f1680156103845780820380516001836020036101000a031916815260200191505b5092505050602060405180830381600087803b1580156103a357600080fd5b505af11580156103b7573d6000803e3d6000fd5b505050506040513d60208110156103cd57600080fd5b810190808051906020019092919050505090506001600260006101000a81548160ff0219169083151502179055505092915050565b60008060009054906101000a900473ffffffffffffffffffffffffffffffffffffffff1673ffffffffffffffffffffffffffffffffffffffff163373ffffffffffffffffffffffffffffffffffffffff16146104a9576040517f08c379a00000000000000000000000000000000000000000000000000000000081526004018080602001828103825260238152602001806106d26023913960400191505060405180910390fd5b600260009054906101000a900460ff1661052b576040517f08c379a000000000000000000000000000000000000000000000000000000000815260040180806020018281038252601a8152602001807f5265776172642070726f6772616d20697320696e61637469766500000000000081525060200191505060405180910390fd5b3373ffffffffffffffffffffffffffffffffffffffff166108fc6001549081150290604051600060405180830381858888f19350505050158015610573573d6000803e3d6000fd5b506000600260006101000a81548160ff0219169083151502179055506001905090565b6000600260009054906101000a900460ff166105b157600080fd5b6000600460009054906101000a900473ffffffffffffffffffffffffffffffffffffffff1673ffffffffffffffffffffffffffffffffffffffff166396b6092a856040518263ffffffff1660e01b81526004018080602001828103825283818151815260200191508051906020019080838360005b83811015610641578082015181840152602081019050610626565b50505050905090810190601f16801561066e5780820380516001836020036101000a031916815260200191505b5092505050602060405180830381600087803b15801561068d57600080fd5b505af11580156106a1573d6000803e3d6000fd5b505050506040513d60208110156106b757600080fd5b81019080805190602001909291905050509050509291505056fe4d616e6167657220726571756972656420666f722074686973206f7065726174696f6ea165627a7a72305820399dc513c7391769b58d24893f2cf0e5d72138e30e21f502033a1beb1bdc2a2200297b20226b657931223a207b20226b6579312e31223a202276616c7565222c20226b6579312e32223a20332c20226b6579312e33223a2074727565207d207d",
  "source": "pragma solidity ^0.5.7;\n\nimport \"./SmellTracker.sol\";\n\ncontract Raptor{\n    \n    address private manager;//Address of manager for high level operation clearance\n    uint private totalReward = 0;\n    bool private isActive = false;\n    string json = \"{ \\\"key1\\\": { \\\"key1.1\\\": \\\"value\\\", \\\"key1.2\\\": 3, \\\"key1.3\\\": true } }\";\n    \n    //Address of smell tracker for later use\n    address private smellTrackerAddress;\n    \n    constructor(address _smellTrackerAddress) public{\n        //Save address of smell tracker to allow use\n        smellTrackerAddress = _smellTrackerAddress;\n    }\n    \n    //=====\n    //State modification\n    //=====\n    \n    /**\n\t\tsetup()\n\t\tinitial contract setup\n\t\t@param initialSmellReport - initial JSON report\n\t\t@param rewardPerSmell - reward per smell\n\t\t@return Success flag\n    **/\n    function setup(string memory initialSmellReport, uint rewardPerSmell) public payable returns (bool){\n        require(!isActive);\n        \n        //Save details\n        manager = msg.sender;\n        totalReward = msg.value;\n        \n        //Initial smell check\n        uint smells = SmellTracker(smellTrackerAddress).checkSmells(initialSmellReport);\n        isActive = true;\n    }\n    \n    /**\n\t\tcancelProgram()\n\t\tRefund reward remaining to manager and inactivate reward program\n\t\t@return Success flag\n    **/\n    function cancelProgram() public payable returns (bool){\n\t\trequire(msg.sender==manager, \"Manager required for this operation\");\n\t\trequire(isActive, \"Reward program is inactive\");\n\t\t\n\t\tmsg.sender.transfer(totalReward);\n\t\tisActive = false;\n\t\t\n\t\treturn true;\n\t}\n\t\n\t/**\n\t\tstatus()\n\t\tReturns active flag\n\t\t@return Active flag\n    **/\n\tfunction status() public returns (bool){\n\t\treturn isActive;\n\t}\n    \n    /**\n\t\tcheckSmells()\n\t\tUsed to update smell report and reward for smell removal\n\t\t@return Smells removed\n    **/\n    function checkSmells(string memory smellReport, bool isInitial) public payable returns (uint){\n        require(isActive);\n        \n        uint smells = SmellTracker(smellTrackerAddress).checkSmells(smellReport);\n    }\n    \n    //To be called to reward for removing smells\n    function reward(uint smellsRemoved) private returns (bool){\n        \n    }\n    \n}\n",
  "sourcePath": "/Users/LaunchZone/Truffle/Nose/Nose/contracts/Raptor.sol",
  "compiler": {
    "name": "solc",
    "version": "0.5.8+commit.23d335f2.Emscripten.clang"
  },
  "schemaVersion": "3.0.16",
  "updatedAt": "2019-11-24T10:46:30.095Z",
  "devdoc": {
    "methods": {
      "cancelProgram()": {
        "return": "Success flag*"
      },
      "checkSmells(string,bool)": {
        "return": "Smells removed*"
      },
      "setup(string,uint256)": {
        "params": {
          "initialSmellReport": "- initial JSON report",
          "rewardPerSmell": "- reward per smell"
        },
        "return": "Success flag*"
      },
      "status()": {
        "return": "Active flag*"
      }
    }
  },
  "userdoc": {
    "methods": {
      "cancelProgram()": {
        "notice": "cancelProgram() Refund reward remaining to manager and inactivate reward program"
      },
      "checkSmells(string,bool)": {
        "notice": "checkSmells() Used to update smell report and reward for smell removal"
      },
      "setup(string,uint256)": {
        "notice": "setup() initial contract setup"
      },
      "status()": {
        "notice": "status() Returns active flag"
      }
    }
  }
}