{
  "contractName": "Raptor",
  "abi": [
    {
      "inputs": [
        {
          "name": "_smellTrackerAddress",
          "type": "address"
        }
      ],
      "payable": false,
      "stateMutability": "nonpayable",
      "type": "constructor"
    },
    {
      "constant": false,
      "inputs": [
        {
          "name": "smellReportAddress",
          "type": "string"
        },
        {
          "name": "_payTo",
          "type": "address"
        },
        {
          "name": "rewardPerSmell",
          "type": "uint256"
        }
      ],
      "name": "setup",
      "outputs": [
        {
          "name": "",
          "type": "bool"
        }
      ],
      "payable": true,
      "stateMutability": "payable",
      "type": "function"
    },
    {
      "constant": false,
      "inputs": [],
      "name": "cancelProgram",
      "outputs": [
        {
          "name": "",
          "type": "bool"
        }
      ],
      "payable": true,
      "stateMutability": "payable",
      "type": "function"
    },
    {
      "constant": false,
      "inputs": [],
      "name": "checkReport",
      "outputs": [
        {
          "name": "",
          "type": "bool"
        }
      ],
      "payable": true,
      "stateMutability": "payable",
      "type": "function"
    },
    {
      "constant": false,
      "inputs": [],
      "name": "status",
      "outputs": [
        {
          "name": "",
          "type": "bool"
        }
      ],
      "payable": false,
      "stateMutability": "nonpayable",
      "type": "function"
    }
  ],
  "bytecode": "0x608060405260006002556000600360006101000a81548160ff0219169083151502179055506040518061014001604052806101128152602001610b5161011291396004908051906020019061005592919061010c565b506040518061014001604052806101168152602001610a3b61011691396005908051906020019061008792919061010c565b5034801561009457600080fd5b50604051602080610c63833981018060405260208110156100b457600080fd5b810190808051906020019092919050505080600660006101000a81548173ffffffffffffffffffffffffffffffffffffffff021916908373ffffffffffffffffffffffffffffffffffffffff160217905550506101b1565b828054600181600116156101000203166002900490600052602060002090601f016020900481019282601f1061014d57805160ff191683800117855561017b565b8280016001018555821561017b579182015b8281111561017a57825182559160200191906001019061015f565b5b509050610188919061018c565b5090565b6101ae91905b808211156101aa576000816000905550600101610192565b5090565b90565b61087b806101c06000396000f3fe60806040526004361061003f5760003560e01c8063200d2ed214610044578063592fb92414610073578063d756e13714610095578063f4dae72c146100b7575b600080fd5b34801561005057600080fd5b506100596101b4565b604051808215151515815260200191505060405180910390f35b61007b6101cb565b604051808215151515815260200191505060405180910390f35b61009d61035f565b604051808215151515815260200191505060405180910390f35b61019a600480360360608110156100cd57600080fd5b81019080803590602001906401000000008111156100ea57600080fd5b8201836020820111156100fc57600080fd5b8035906020019184600183028401116401000000008311171561011e57600080fd5b91908080601f016020809104026020016040519081016040528093929190818152602001838380828437600081840152601f19601f820116905080830192505050505050509192919290803573ffffffffffffffffffffffffffffffffffffffff16906020019092919080359060200190929190505050610621565b604051808215151515815260200191505060405180910390f35b6000600360009054906101000a900460ff16905090565b60008060009054906101000a900473ffffffffffffffffffffffffffffffffffffffff1673ffffffffffffffffffffffffffffffffffffffff163373ffffffffffffffffffffffffffffffffffffffff1614610272576040517f08c379a000000000000000000000000000000000000000000000000000000000815260040180806020018281038252602381526020018061082d6023913960400191505060405180910390fd5b600360009054906101000a900460ff166102f4576040517f08c379a000000000000000000000000000000000000000000000000000000000815260040180806020018281038252601a8152602001807f5265776172642070726f6772616d20697320696e61637469766500000000000081525060200191505060405180910390fd5b3373ffffffffffffffffffffffffffffffffffffffff166108fc6002549081150290604051600060405180830381858888f1935050505015801561033c573d6000803e3d6000fd5b506000600360006101000a81548160ff0219169083151502179055506001905090565b600080600660009054906101000a900473ffffffffffffffffffffffffffffffffffffffff1673ffffffffffffffffffffffffffffffffffffffff1663a568ad636040518163ffffffff1660e01b8152600401602060405180830381600087803b1580156103cc57600080fd5b505af11580156103e0573d6000803e3d6000fd5b505050506040513d60208110156103f657600080fd5b81019080805190602001909291905050509050600660009054906101000a900473ffffffffffffffffffffffffffffffffffffffff1673ffffffffffffffffffffffffffffffffffffffff166368d745c06040518163ffffffff1660e01b8152600401600060405180830381600087803b15801561047357600080fd5b505af1158015610487573d6000803e3d6000fd5b505050506000600660009054906101000a900473ffffffffffffffffffffffffffffffffffffffff1673ffffffffffffffffffffffffffffffffffffffff1663184c8b11600560016040518363ffffffff1660e01b81526004018080602001831515151581526020018281038252848181546001816001161561010002031660029004815260200191508054600181600116156101000203166002900480156105715780601f1061054657610100808354040283529160200191610571565b820191906000526020600020905b81548152906001019060200180831161055457829003601f168201915b50509350505050602060405180830381600087803b15801561059257600080fd5b505af11580156105a6573d6000803e3d6000fd5b505050506040513d60208110156105bc57600080fd5b810190808051906020019092919050505090503373ffffffffffffffffffffffffffffffffffffffff166108fc6002549081150290604051600060405180830381858888f19350505050158015610617573d6000803e3d6000fd5b5060019250505090565b6000600360009054906101000a900460ff161561063d57600080fd5b336000806101000a81548173ffffffffffffffffffffffffffffffffffffffff021916908373ffffffffffffffffffffffffffffffffffffffff16021790555082600160006101000a81548173ffffffffffffffffffffffffffffffffffffffff021916908373ffffffffffffffffffffffffffffffffffffffff160217905550346002819055506000600660009054906101000a900473ffffffffffffffffffffffffffffffffffffffff1673ffffffffffffffffffffffffffffffffffffffff1663184c8b11600460006040518363ffffffff1660e01b81526004018080602001831515151581526020018281038252848181546001816001161561010002031660029004815260200191508054600181600116156101000203166002900480156107ab5780601f10610780576101008083540402835291602001916107ab565b820191906000526020600020905b81548152906001019060200180831161078e57829003601f168201915b50509350505050602060405180830381600087803b1580156107cc57600080fd5b505af11580156107e0573d6000803e3d6000fd5b505050506040513d60208110156107f657600080fd5b810190808051906020019092919050505090506001600360006101000a81548160ff02191690831515021790555050939250505056fe4d616e6167657220726571756972656420666f722074686973206f7065726174696f6ea165627a7a72305820757df413fb1d228fd8e2044c7ef238b441c10359b4c72a6d45c26a67b38a834600297b202022746f74616c223a34302c20202270223a312c2020227073223a3130302c202022706167696e67223a7b2020202270616765496e646578223a312c202020227061676553697a65223a3130302c20202022746f74616c223a343020207d2c2020226566666f7274546f74616c223a3234312c20202264656274546f74616c223a3234312c202022697373756573223a5b2020207b20202020226b6579223a22415736674858424574686c776c704f7078516467222c2020202022737461747573223a22434c4f534544222020207d2c2020207b20202020226b6579223a22415736674858424574686c776c704f7078516468222c2020202022737461747573223a22434c4f534544222020207d20205d207d207b202022746f74616c223a34302c20202270223a312c2020227073223a3130302c202022706167696e67223a7b2020202270616765496e646578223a312c202020227061676553697a65223a3130302c20202022746f74616c223a343020207d2c2020226566666f7274546f74616c223a3234312c20202264656274546f74616c223a3234312c202022697373756573223a5b2020207b20202020226b6579223a22415736674858424574686c776c704f7078516467222c2020202022737461747573223a224f50454e222020207d2c2020207b20202020226b6579223a22415736674858424574686c776c704f7078516468222c2020202022737461747573223a224f50454e222020207d20205d207d20",
  "source": "pragma solidity ^0.5.7;\n\nimport \"./SmellTracker.sol\";\n\ncontract Raptor{\n    \n    address private manager;//Address of manager for high level operation clearance\n    address private payTo;\n    uint private totalReward = 0;\n    bool private isActive = false;\n    string json = \"{  \\\"total\\\":40,  \\\"p\\\":1,  \\\"ps\\\":100,  \\\"paging\\\":{   \\\"pageIndex\\\":1,   \\\"pageSize\\\":100,   \\\"total\\\":40  },  \\\"effortTotal\\\":241,  \\\"debtTotal\\\":241,  \\\"issues\\\":[   {    \\\"key\\\":\\\"AW6gHXBEthlwlpOpxQdg\\\",    \\\"status\\\":\\\"OPEN\\\"   },   {    \\\"key\\\":\\\"AW6gHXBEthlwlpOpxQdh\\\",    \\\"status\\\":\\\"OPEN\\\"   }  ] } \";\n    \n    string jsonx = \"{  \\\"total\\\":40,  \\\"p\\\":1,  \\\"ps\\\":100,  \\\"paging\\\":{   \\\"pageIndex\\\":1,   \\\"pageSize\\\":100,   \\\"total\\\":40  },  \\\"effortTotal\\\":241,  \\\"debtTotal\\\":241,  \\\"issues\\\":[   {    \\\"key\\\":\\\"AW6gHXBEthlwlpOpxQdg\\\",    \\\"status\\\":\\\"CLOSED\\\"   },   {    \\\"key\\\":\\\"AW6gHXBEthlwlpOpxQdh\\\",    \\\"status\\\":\\\"CLOSED\\\"   }  ] } \";\n    \n    //Address of smell tracker for later use\n    address private smellTrackerAddress;\n    \n    constructor(address _smellTrackerAddress) public{\n        //Save address of smell tracker to allow use\n        smellTrackerAddress = _smellTrackerAddress;\n    }\n    \n    //=====\n    //State modification\n    //=====\n    \n    /**\n\t\tsetup()\n\t\tinitial contract setup\n\t\t@param smellReportAddress - initial JSON report\n\t\t@param rewardPerSmell - reward per smell\n\t\t@return Success flag\n    **/\n    function setup(string memory smellReportAddress, address _payTo, uint rewardPerSmell) public payable returns (bool){\n        require(!isActive);\n        \n        //Save details\n        manager = msg.sender;\n        payTo = _payTo;\n        totalReward = msg.value;\n        \n        //Initial smell check\n        uint smells = SmellTracker(smellTrackerAddress).checkSmellsF(json, false);\n        isActive = true;\n    }\n    \n    /**\n\t\tcancelProgram()\n\t\tRefund reward remaining to manager and inactivate reward program\n\t\t@return Success flag\n    **/\n    function cancelProgram() public payable returns (bool){\n\t\trequire(msg.sender==manager, \"Manager required for this operation\");\n\t\trequire(isActive, \"Reward program is inactive\");\n\t\t\n\t\tmsg.sender.transfer(totalReward);\n\t\tisActive = false;\n\t\t\n\t\treturn true;\n\t}\n\t\n\t\n\t/**\n\t\tcheckReport()\n\t\tUsed to update smell report and reward for smell removal\n\t\t@return Smells removed\n    **/\n    function checkReport() public payable returns (bool){\n        //require(isActive);\n        \n        uint oldSmells = SmellTracker(smellTrackerAddress).getSmellNumber();\n        \n        SmellTracker(smellTrackerAddress).reloadReport();\n        \n        uint smells = SmellTracker(smellTrackerAddress).checkSmellsF(jsonx, true);\n        \n        //if (smells<oldSmells){\n\t\tmsg.sender.transfer(totalReward);\n\t\t//}\n\t\t\n\t\treturn true;\n    }\n\t\n\t/**\n\t\tstatus()\n\t\tReturns active flag\n\t\t@return Active flag\n    **/\n\tfunction status() public returns (bool){\n\t\treturn isActive;\n\t}\n    \n    \n    \n    //To be called to reward for removing smells\n    function reward(uint smellsRemoved) private returns (bool){\n        \n    }\n    \n}\n",
  "sourcePath": "/Users/LaunchZone/Truffle/Nose/Nose/contracts/Raptor.sol",
  "compiler": {
    "name": "solc",
    "version": "0.5.8+commit.23d335f2.Emscripten.clang"
  },
  "schemaVersion": "3.0.16",
  "updatedAt": "2019-11-26T02:00:16.606Z",
  "devdoc": {
    "methods": {
      "cancelProgram()": {
        "return": "Success flag*"
      },
      "checkReport()": {
        "return": "Smells removed*"
      },
      "setup(string,address,uint256)": {
        "params": {
          "rewardPerSmell": "- reward per smell",
          "smellReportAddress": "- initial JSON report"
        },
        "return": "Success flag*"
      },
      "status()": {
        "return": "Active flag*"
      }
    }
  },
  "userdoc": {
    "methods": {
      "cancelProgram()": {
        "notice": "cancelProgram() Refund reward remaining to manager and inactivate reward program"
      },
      "checkReport()": {
        "notice": "checkReport() Used to update smell report and reward for smell removal"
      },
      "setup(string,address,uint256)": {
        "notice": "setup() initial contract setup"
      },
      "status()": {
        "notice": "status() Returns active flag"
      }
    }
  }
}