{
  "contractName": "SmellTracker",
  "abi": [
    {
      "constant": true,
      "inputs": [
        {
          "name": "",
          "type": "address"
        }
      ],
      "name": "smellBase",
      "outputs": [
        {
          "name": "",
          "type": "uint256"
        }
      ],
      "payable": false,
      "stateMutability": "view",
      "type": "function"
    },
    {
      "inputs": [],
      "payable": false,
      "stateMutability": "nonpayable",
      "type": "constructor"
    }
  ],
  "bytecode": "0x60806040526000600160006101000a81548160ff02191690831515021790555034801561002b57600080fd5b5061016d8061003b6000396000f3fe608060405234801561001057600080fd5b506004361061002b5760003560e01c8063f5f4008f14610030575b600080fd5b61004a6004803603610045919081019061008d565b610060565b60405161005791906100c5565b60405180910390f35b60006020528060005260406000206000915090505481565b6000813590506100878161011c565b92915050565b60006020828403121561009f57600080fd5b60006100ad84828501610078565b91505092915050565b6100bf81610112565b82525050565b60006020820190506100da60008301846100b6565b92915050565b60006100eb826100f2565b9050919050565b600073ffffffffffffffffffffffffffffffffffffffff82169050919050565b6000819050919050565b610125816100e0565b811461013057600080fd5b5056fea265627a7a7230582054ec3c6ac1898887f6b63818353ab157b8ddb909123f13644e052cd21306604a6c6578706572696d656e74616cf50037",
  "source": "pragma solidity ^0.5.7;\npragma experimental ABIEncoderV2;\n\nimport \"jsmnsol-lib/JsmnSolLib.sol\";\n\ncontract SmellTracker{\n\n    mapping (address => uint) public smellBase;\n    bool hasMappedInitial = false;//Flag indicating if initial smell JSON was mapped\n    \n    constructor() public{\n        \n    }\n    \n    \n    /**\n\t\tcheckSmells()\n    \n    **/\n    function checkSmells(string memory smellReport) internal returns (uint){\n        \n        //Fields to store return values of parsing call\n        uint returnCode;\n        JsmnSolLib.Token[] memory tokens;\n        uint actualNumber;\n        \n        //Parse smell report. Pass string containing JSON, & maximum number of tokens\n        (returnCode, tokens, actualNumber) = JsmnSolLib.parse(smellReport, 10);\n        \n        //TOOD - create smell mapping and update smellBase\n        \n        //TODO - Return actual number of smells found\n        return 41;\n    }\n\n}\n",
  "sourcePath": "/Users/LaunchZone/Truffle/Nose/Nose/contracts/SmellTracker.sol",
  "compiler": {
    "name": "solc",
    "version": "0.5.8+commit.23d335f2.Emscripten.clang"
  },
  "schemaVersion": "3.0.16",
  "updatedAt": "2019-11-23T21:57:45.012Z",
  "devdoc": {
    "methods": {}
  },
  "userdoc": {
    "methods": {}
  }
}