{
  "contractName": "SmellTracker",
  "abi": [
    {
      "constant": true,
      "inputs": [
        {
          "name": "",
          "type": "address"
        }
      ],
      "name": "smellBase",
      "outputs": [
        {
          "name": "",
          "type": "uint256"
        }
      ],
      "payable": false,
      "stateMutability": "view",
      "type": "function"
    },
    {
      "inputs": [],
      "payable": false,
      "stateMutability": "nonpayable",
      "type": "constructor"
    },
    {
      "constant": false,
      "inputs": [
        {
          "name": "smellReport",
          "type": "string"
        }
      ],
      "name": "checkSmells",
      "outputs": [
        {
          "name": "",
          "type": "uint256"
        }
      ],
      "payable": false,
      "stateMutability": "nonpayable",
      "type": "function"
    }
  ],
  "bytecode": "0x60806040526000600160006101000a81548160ff02191690831515021790555034801561002b57600080fd5b506119058061003b6000396000f3fe608060405234801561001057600080fd5b50600436106100365760003560e01c806396b6092a1461003b578063f5f4008f1461006b575b600080fd5b610055600480360361005091908101906117a5565b61009b565b60405161006291906117f5565b60405180910390f35b6100856004803603610080919081019061177c565b6100c5565b60405161009291906117f5565b60405180910390f35b600080606060006100ad85600a6100dd565b80935081945082955050505060299350505050919050565b60006020528060005260406000206000915090505481565b600060606000606085905060006100f2611662565b6100fb87610d01565b8096508192505050600080826020015190506000610117611683565b5b865185600001511015610ce45760008786600001518151811061013757fe5b602001015160f81c60f81b9050607b60f81b817effffffffffffffffffffffffffffffffffffffffffffffffffffffffffffff1916148061019d5750605b60f81b817effffffffffffffffffffffffffffffffffffffffffffffffffffffffffffff1916145b156102c35783806001019450506101b4868b610d9e565b8093508198505050866101dc5760038a60008090509a509a509a505050505050505050610cfa565b7fffffffffffffffffffffffffffffffffffffffffffffffffffffffffffffffff866040015114610235578986604001518151811061021757fe5b602002602001015160a001805180919060010160ff1660ff16815250505b607b60f81b817effffffffffffffffffffffffffffffffffffffffffffffffffffffffffffff19161461026957600261026c565b60015b8260000190600481111561027c57fe5b9081600481111561028957fe5b8152505085600001518260200181815250506001826040019015159081151581525050600186602001510386604001818152505050610ccf565b607d60f81b817effffffffffffffffffffffffffffffffffffffffffffffffffffffffffffff1916148061031c5750605d60f81b817effffffffffffffffffffffffffffffffffffffffffffffffffffffffffffff1916145b1561053d576000607d60f81b827effffffffffffffffffffffffffffffffffffffffffffffffffffffffffffff19161461035757600261035a565b60015b90506000809050600188602001510394505b60008510610469578b858151811061038057fe5b602002602001015193508360400151801561039d57508360800151155b1561045b578160048111156103ae57fe5b846000015160048111156103be57fe5b146103e05760018c60008090509c509c509c5050505050505050505050610cfa565b7fffffffffffffffffffffffffffffffffffffffffffffffffffffffffffffffff88604001818152505060018860000151018c868151811061041e57fe5b6020026020010151606001818152505060018c868151811061043c57fe5b6020026020010151608001901515908115158152505060019050610469565b84806001900395505061036c565b8061048b5760018c60008090509c509c509c5050505050505050505050610cfa565b5b60008511156104e0578b85815181106104a157fe5b60200260200101519350836040015180156104be57508360800151155b156104d257848860400181815250506104e0565b84806001900395505061048c565b6000851415610535578b85815181106104f557fe5b602002602001015193508360400151801561051257508360800151155b1561053457846fffffffffffffffffffffffffffffffff168860400181815250505b5b505050610ccf565b7f2200000000000000000000000000000000000000000000000000000000000000817effffffffffffffffffffffffffffffffffffffffffffffffffffffffffffff1916141561061d57610592868b8a610e65565b9450600085146105b657848a60008090509a509a509a505050505050505050610cfa565b83806001019450507fffffffffffffffffffffffffffffffffffffffffffffffffffffffffffffffff86604001511461061757898660400151815181106105f957fe5b602002602001015160a001805180919060010160ff1660ff16815250505b50610ccf565b7f2000000000000000000000000000000000000000000000000000000000000000817effffffffffffffffffffffffffffffffffffffffffffffffffffffffffffff191614806106925750601160f81b817effffffffffffffffffffffffffffffffffffffffffffffffffffffffffffff1916145b806106c25750601260f81b817effffffffffffffffffffffffffffffffffffffffffffffffffffffffffffff1916145b806106f25750601460f81b817effffffffffffffffffffffffffffffffffffffffffffffffffffffffffffff1916145b156106fd5750610ccf565b7f3a00000000000000000000000000000000000000000000000000000000000000817effffffffffffffffffffffffffffffffffffffffffffffffffffffffffffff1916141561075e57600186602001510386604001818152505050610ccf565b7f2c00000000000000000000000000000000000000000000000000000000000000817effffffffffffffffffffffffffffffffffffffffffffffffffffffffffffff19161415610935577fffffffffffffffffffffffffffffffffffffffffffffffffffffffffffffffff86604001511415801561080e5750600260048111156107e457fe5b8a8760400151815181106107f457fe5b602002602001015160000151600481111561080b57fe5b14155b801561084c57506001600481111561082257fe5b8a87604001518151811061083257fe5b602002602001015160000151600481111561084957fe5b14155b1561092f57600186602001510392505b6000831061092e576002600481111561087157fe5b8a848151811061087d57fe5b602002602001015160000151600481111561089457fe5b14806108cd5750600160048111156108a857fe5b8a84815181106108b457fe5b60200260200101516000015160048111156108cb57fe5b145b15610920578983815181106108de57fe5b602002602001015160400151801561090b57508983815181106108fd57fe5b602002602001015160800151155b1561091f578286604001818152505061092e565b5b82806001900393505061085c565b5b50610ccf565b7f3000000000000000000000000000000000000000000000000000000000000000817effffffffffffffffffffffffffffffffffffffffffffffffffffffffffffff1916101580156109c957507f3900000000000000000000000000000000000000000000000000000000000000817effffffffffffffffffffffffffffffffffffffffffffffffffffffffffffff191611155b80610a1557507f2d00000000000000000000000000000000000000000000000000000000000000817effffffffffffffffffffffffffffffffffffffffffffffffffffffffffffff1916145b80610a6157507f6600000000000000000000000000000000000000000000000000000000000000817effffffffffffffffffffffffffffffffffffffffffffffffffffffffffffff1916145b80610aad57507f7400000000000000000000000000000000000000000000000000000000000000817effffffffffffffffffffffffffffffffffffffffffffffffffffffffffffff1916145b80610af957507f6e00000000000000000000000000000000000000000000000000000000000000817effffffffffffffffffffffffffffffffffffffffffffffffffffffffffffff1916145b15610c51577fffffffffffffffffffffffffffffffffffffffffffffffffffffffffffffffff866040015114610bbb5789866040015181518110610b3957fe5b6020026020010151915060016004811115610b5057fe5b82600001516004811115610b6057fe5b1480610b9a575060036004811115610b7457fe5b82600001516004811115610b8457fe5b148015610b99575060008260a0015160ff1614155b5b15610bba5760018a60008090509a509a509a505050505050505050610cfa565b5b610bc6868b8a6112fc565b945060008514610bea57848a60008090509a509a509a505050505050505050610cfa565b83806001019450507fffffffffffffffffffffffffffffffffffffffffffffffffffffffffffffffff866040015114610c4b5789866040015181518110610c2d57fe5b602002602001015160a001805180919060010160ff1660ff16815250505b50610ccf565b602060f81b817effffffffffffffffffffffffffffffffffffffffffffffffffffffffffffff191610158015610cad5750607e60f81b817effffffffffffffffffffffffffffffffffffffffffffffffffffffffffffff191611155b15610ccd5760018a60008090509a509a509a505050505050505050610cfa565b505b84600001805180919060010181525050610118565b6000898660200151995099509950505050505050505b9250925092565b610d09611662565b6060610d13611662565b604051806060016040528060008152602001600081526020017fffffffffffffffffffffffffffffffffffffffffffffffffffffffffffffffff8152509050606084604051908082528060200260200182016040528015610d8e57816020015b610d7b6116cb565b815260200190600190039081610d735790505b5090508181935093505050915091565b6000610da8611683565b8251846020015110610dda57600083600185510381518110610dc657fe5b602002602001015180905091509150610e5e565b610de2611683565b6040518060c0016040528060006004811115610dfa57fe5b81526020016000815260200160001515815260200160008152602001600015158152602001600060ff1681525090508084866020015181518110610e3a57fe5b60200260200101819052508460200180518091906001018152505060018192509250505b9250929050565b600080846000015190506000610e79611683565b866000018051809190600101815250505b8451876000015110156112e357600085886000015181518110610ea957fe5b602001015160f81c60f81b90507f2200000000000000000000000000000000000000000000000000000000000000817effffffffffffffffffffffffffffffffffffffffffffffffffffffffffffff19161415610f4f57610f0a8888610d9e565b809350819450505082610f2e578388600001818152505060039450505050506112f5565b610f42826003600187018b600001516115f1565b60009450505050506112f5565b605c8160f81c60ff16148015610f6c575085516001896000015101105b156112cc57876000018051809190600101815250507f220000000000000000000000000000000000000000000000000000000000000086896000015181518110610fb257fe5b602001015160f81c60f81b7effffffffffffffffffffffffffffffffffffffffffffffffffffffffffffff1916148061104657507f2f000000000000000000000000000000000000000000000000000000000000008689600001518151811061101757fe5b602001015160f81c60f81b7effffffffffffffffffffffffffffffffffffffffffffffffffffffffffffff1916145b806110ac57507f5c000000000000000000000000000000000000000000000000000000000000008689600001518151811061107d57fe5b602001015160f81c60f81b7effffffffffffffffffffffffffffffffffffffffffffffffffffffffffffff1916145b8061111257507f6600000000000000000000000000000000000000000000000000000000000000868960000151815181106110e357fe5b602001015160f81c60f81b7effffffffffffffffffffffffffffffffffffffffffffffffffffffffffffff1916145b8061117857507f72000000000000000000000000000000000000000000000000000000000000008689600001518151811061114957fe5b602001015160f81c60f81b7effffffffffffffffffffffffffffffffffffffffffffffffffffffffffffff1916145b806111de57507f6e00000000000000000000000000000000000000000000000000000000000000868960000151815181106111af57fe5b602001015160f81c60f81b7effffffffffffffffffffffffffffffffffffffffffffffffffffffffffffff1916145b8061124457507f62000000000000000000000000000000000000000000000000000000000000008689600001518151811061121557fe5b602001015160f81c60f81b7effffffffffffffffffffffffffffffffffffffffffffffffffffffffffffff1916145b806112aa57507f74000000000000000000000000000000000000000000000000000000000000008689600001518151811061127b57fe5b602001015160f81c60f81b7effffffffffffffffffffffffffffffffffffffffffffffffffffffffffffff1916145b156112b557506112ce565b8388600001818152505060019450505050506112f5565b505b86600001805180919060010181525050610e8a565b82876000018181525050600293505050505b9392505050565b60008060009050600085600001519050600080611317611683565b5b865189600001511015611572578689600001518151811061133557fe5b602001015160f81c60f81b92507f2000000000000000000000000000000000000000000000000000000000000000837effffffffffffffffffffffffffffffffffffffffffffffffffffffffffffff191614806113d357507f0900000000000000000000000000000000000000000000000000000000000000837effffffffffffffffffffffffffffffffffffffffffffffffffffffffffffff1916145b8061141f57507f0a00000000000000000000000000000000000000000000000000000000000000837effffffffffffffffffffffffffffffffffffffffffffffffffffffffffffff1916145b8061146b57507f0d00000000000000000000000000000000000000000000000000000000000000837effffffffffffffffffffffffffffffffffffffffffffffffffffffffffffff1916145b806114b757507f2c00000000000000000000000000000000000000000000000000000000000000837effffffffffffffffffffffffffffffffffffffffffffffffffffffffffffff1916145b806114e75750607d60f81b837effffffffffffffffffffffffffffffffffffffffffffffffffffffffffffff1916145b806115175750605d60f81b837effffffffffffffffffffffffffffffffffffffffffffffffffffffffffffff1916145b156115255760019450611572565b60208360f81c60ff1610806115405750607f8360f81c60ff16115b1561155d57838960000181815250506001955050505050506115ea565b88600001805180919060010181525050611318565b8461158f57838960000181815250506002955050505050506115ea565b6115998989610d9e565b8092508193505050816115be57838960000181815250506003955050505050506115ea565b6115cf816004868c600001516115f1565b88600001805180919060019003815250506000955050505050505b9392505050565b828460000190600481111561160257fe5b9081600481111561160f57fe5b8152505081846020018181525050600184604001901515908115158152505080846060018181525050600184608001901515908115158152505060008460a0019060ff16908160ff168152505050505050565b60405180606001604052806000815260200160008152602001600081525090565b6040518060c001604052806000600481111561169b57fe5b81526020016000815260200160001515815260200160008152602001600015158152602001600060ff1681525090565b6040518060c00160405280600060048111156116e357fe5b81526020016000815260200160001515815260200160008152602001600015158152602001600060ff1681525090565b600081359050611722816118b4565b92915050565b600082601f83011261173957600080fd5b813561174c6117478261183d565b611810565b9150808252602083016020830185838301111561176857600080fd5b6117738382846118a5565b50505092915050565b60006020828403121561178e57600080fd5b600061179c84828501611713565b91505092915050565b6000602082840312156117b757600080fd5b600082013567ffffffffffffffff8111156117d157600080fd5b6117dd84828501611728565b91505092915050565b6117ef8161189b565b82525050565b600060208201905061180a60008301846117e6565b92915050565b6000604051905081810181811067ffffffffffffffff8211171561183357600080fd5b8060405250919050565b600067ffffffffffffffff82111561185457600080fd5b601f19601f8301169050602081019050919050565b60006118748261187b565b9050919050565b600073ffffffffffffffffffffffffffffffffffffffff82169050919050565b6000819050919050565b82818337600083830152505050565b6118bd81611869565b81146118c857600080fd5b5056fea265627a7a72305820159404f36b699ff00f45b75aad59f9f4cc49250ac5926fd7d5fa413bcf5a12906c6578706572696d656e74616cf50037",
  "source": "pragma solidity ^0.5.7;\npragma experimental ABIEncoderV2;\n\nimport \"jsmnsol-lib/JsmnSolLib.sol\";\n\ncontract SmellTracker{\n\t\n\t//mapping containing current unresolved smells\n    mapping (address => uint) public smellBase;\n    //Flag indicating if initial smell report was mapped\n    bool hasMappedInitial = false;\n    \n    constructor() public{\n        \n    }\n    \n    \n    \n    /**\n\t\tcheckSmells()\n\t\t@param smellReport - JSON code report\n\t\t@return number of smells identified in report\n    **/\n    function checkSmells(string memory smellReport) public returns (uint){\n        \n        //Fields to store return values of parsing call\n        uint returnCode;\n        JsmnSolLib.Token[] memory tokens;\n        uint actualNumber;\n        \n        //Parse smell report. Pass string containing JSON, & maximum number of tokens\n        (returnCode, tokens, actualNumber) = JsmnSolLib.parse(smellReport, 10);\n        \n        //TOOD - create smell mapping and update smellBase\n        \n        //TODO - Return actual number of smells found\n        return 41;\n    }\n    \n    \n\n}\n",
  "sourcePath": "/Users/LaunchZone/Truffle/Nose/Nose/contracts/SmellTracker.sol",
  "compiler": {
    "name": "solc",
    "version": "0.5.8+commit.23d335f2.Emscripten.clang"
  },
  "schemaVersion": "3.0.16",
  "updatedAt": "2019-11-24T10:46:30.097Z",
  "devdoc": {
    "methods": {
      "checkSmells(string)": {
        "params": {
          "smellReport": "- JSON code report"
        },
        "return": "number of smells identified in report*"
      }
    }
  },
  "userdoc": {
    "methods": {
      "checkSmells(string)": {
        "notice": "checkSmells()"
      }
    }
  }
}