{
  "contractName": "SmellTracker",
  "abi": [
    {
      "constant": true,
      "inputs": [
        {
          "name": "",
          "type": "address"
        }
      ],
      "name": "task",
      "outputs": [
        {
          "name": "",
          "type": "uint256"
        }
      ],
      "payable": false,
      "stateMutability": "view",
      "type": "function"
    },
    {
      "inputs": [],
      "payable": false,
      "stateMutability": "nonpayable",
      "type": "constructor"
    },
    {
      "constant": false,
      "inputs": [
        {
          "name": "smellJson",
          "type": "string"
        }
      ],
      "name": "checkSmells",
      "outputs": [
        {
          "name": "",
          "type": "uint256"
        }
      ],
      "payable": false,
      "stateMutability": "nonpayable",
      "type": "function"
    }
  ],
  "bytecode": "0x60806040526040518060600160405280603e815260200162001ac3603e9139600090805190602001906200003592919062000065565b506000600260006101000a81548160ff0219169083151502179055503480156200005e57600080fd5b5062000114565b828054600181600116156101000203166002900490600052602060002090601f016020900481019282601f10620000a857805160ff1916838001178555620000d9565b82800160010185558215620000d9579182015b82811115620000d8578251825591602001919060010190620000bb565b5b509050620000e89190620000ec565b5090565b6200011191905b808211156200010d576000816000905550600101620000f3565b5090565b90565b61199f80620001246000396000f3fe608060405234801561001057600080fd5b50600436106100365760003560e01c806396b6092a1461003b578063f1f1a3a81461006b575b600080fd5b6100556004803603610050919081019061183f565b61009b565b604051610062919061188f565b60405180910390f35b61008560048036036100809190810190611816565b61015f565b604051610092919061188f565b60405180910390f35b6000806060600061014760008054600181600116156101000203166002900480601f01602080910402602001604051908101604052809291908181526020018280546001816001161561010002031660029004801561013b5780601f106101105761010080835404028352916020019161013b565b820191906000526020600020905b81548152906001019060200180831161011e57829003601f168201915b5050505050600a610177565b80935081945082955050505060459350505050919050565b60016020528060005260406000206000915090505481565b6000606060006060859050600061018c6116fc565b61019587610d9b565b80965081925050506000808260200151905060006101b161171d565b5b865185600001511015610d7e576000878660000151815181106101d157fe5b602001015160f81c60f81b9050607b60f81b817effffffffffffffffffffffffffffffffffffffffffffffffffffffffffffff191614806102375750605b60f81b817effffffffffffffffffffffffffffffffffffffffffffffffffffffffffffff1916145b1561035d57838060010194505061024e868b610e38565b8093508198505050866102765760038a60008090509a509a509a505050505050505050610d94565b7fffffffffffffffffffffffffffffffffffffffffffffffffffffffffffffffff8660400151146102cf57898660400151815181106102b157fe5b602002602001015160a001805180919060010160ff1660ff16815250505b607b60f81b817effffffffffffffffffffffffffffffffffffffffffffffffffffffffffffff191614610303576002610306565b60015b8260000190600481111561031657fe5b9081600481111561032357fe5b8152505085600001518260200181815250506001826040019015159081151581525050600186602001510386604001818152505050610d69565b607d60f81b817effffffffffffffffffffffffffffffffffffffffffffffffffffffffffffff191614806103b65750605d60f81b817effffffffffffffffffffffffffffffffffffffffffffffffffffffffffffff1916145b156105d7576000607d60f81b827effffffffffffffffffffffffffffffffffffffffffffffffffffffffffffff1916146103f15760026103f4565b60015b90506000809050600188602001510394505b60008510610503578b858151811061041a57fe5b602002602001015193508360400151801561043757508360800151155b156104f55781600481111561044857fe5b8460000151600481111561045857fe5b1461047a5760018c60008090509c509c509c5050505050505050505050610d94565b7fffffffffffffffffffffffffffffffffffffffffffffffffffffffffffffffff88604001818152505060018860000151018c86815181106104b857fe5b6020026020010151606001818152505060018c86815181106104d657fe5b6020026020010151608001901515908115158152505060019050610503565b848060019003955050610406565b806105255760018c60008090509c509c509c5050505050505050505050610d94565b5b600085111561057a578b858151811061053b57fe5b602002602001015193508360400151801561055857508360800151155b1561056c578488604001818152505061057a565b848060019003955050610526565b60008514156105cf578b858151811061058f57fe5b60200260200101519350836040015180156105ac57508360800151155b156105ce57846fffffffffffffffffffffffffffffffff168860400181815250505b5b505050610d69565b7f2200000000000000000000000000000000000000000000000000000000000000817effffffffffffffffffffffffffffffffffffffffffffffffffffffffffffff191614156106b75761062c868b8a610eff565b94506000851461065057848a60008090509a509a509a505050505050505050610d94565b83806001019450507fffffffffffffffffffffffffffffffffffffffffffffffffffffffffffffffff8660400151146106b1578986604001518151811061069357fe5b602002602001015160a001805180919060010160ff1660ff16815250505b50610d69565b7f2000000000000000000000000000000000000000000000000000000000000000817effffffffffffffffffffffffffffffffffffffffffffffffffffffffffffff1916148061072c5750601160f81b817effffffffffffffffffffffffffffffffffffffffffffffffffffffffffffff1916145b8061075c5750601260f81b817effffffffffffffffffffffffffffffffffffffffffffffffffffffffffffff1916145b8061078c5750601460f81b817effffffffffffffffffffffffffffffffffffffffffffffffffffffffffffff1916145b156107975750610d69565b7f3a00000000000000000000000000000000000000000000000000000000000000817effffffffffffffffffffffffffffffffffffffffffffffffffffffffffffff191614156107f857600186602001510386604001818152505050610d69565b7f2c00000000000000000000000000000000000000000000000000000000000000817effffffffffffffffffffffffffffffffffffffffffffffffffffffffffffff191614156109cf577fffffffffffffffffffffffffffffffffffffffffffffffffffffffffffffffff8660400151141580156108a857506002600481111561087e57fe5b8a87604001518151811061088e57fe5b60200260200101516000015160048111156108a557fe5b14155b80156108e65750600160048111156108bc57fe5b8a8760400151815181106108cc57fe5b60200260200101516000015160048111156108e357fe5b14155b156109c957600186602001510392505b600083106109c8576002600481111561090b57fe5b8a848151811061091757fe5b602002602001015160000151600481111561092e57fe5b148061096757506001600481111561094257fe5b8a848151811061094e57fe5b602002602001015160000151600481111561096557fe5b145b156109ba5789838151811061097857fe5b60200260200101516040015180156109a5575089838151811061099757fe5b602002602001015160800151155b156109b957828660400181815250506109c8565b5b8280600190039350506108f6565b5b50610d69565b7f3000000000000000000000000000000000000000000000000000000000000000817effffffffffffffffffffffffffffffffffffffffffffffffffffffffffffff191610158015610a6357507f3900000000000000000000000000000000000000000000000000000000000000817effffffffffffffffffffffffffffffffffffffffffffffffffffffffffffff191611155b80610aaf57507f2d00000000000000000000000000000000000000000000000000000000000000817effffffffffffffffffffffffffffffffffffffffffffffffffffffffffffff1916145b80610afb57507f6600000000000000000000000000000000000000000000000000000000000000817effffffffffffffffffffffffffffffffffffffffffffffffffffffffffffff1916145b80610b4757507f7400000000000000000000000000000000000000000000000000000000000000817effffffffffffffffffffffffffffffffffffffffffffffffffffffffffffff1916145b80610b9357507f6e00000000000000000000000000000000000000000000000000000000000000817effffffffffffffffffffffffffffffffffffffffffffffffffffffffffffff1916145b15610ceb577fffffffffffffffffffffffffffffffffffffffffffffffffffffffffffffffff866040015114610c555789866040015181518110610bd357fe5b6020026020010151915060016004811115610bea57fe5b82600001516004811115610bfa57fe5b1480610c34575060036004811115610c0e57fe5b82600001516004811115610c1e57fe5b148015610c33575060008260a0015160ff1614155b5b15610c545760018a60008090509a509a509a505050505050505050610d94565b5b610c60868b8a611396565b945060008514610c8457848a60008090509a509a509a505050505050505050610d94565b83806001019450507fffffffffffffffffffffffffffffffffffffffffffffffffffffffffffffffff866040015114610ce55789866040015181518110610cc757fe5b602002602001015160a001805180919060010160ff1660ff16815250505b50610d69565b602060f81b817effffffffffffffffffffffffffffffffffffffffffffffffffffffffffffff191610158015610d475750607e60f81b817effffffffffffffffffffffffffffffffffffffffffffffffffffffffffffff191611155b15610d675760018a60008090509a509a509a505050505050505050610d94565b505b846000018051809190600101815250506101b2565b6000898660200151995099509950505050505050505b9250925092565b610da36116fc565b6060610dad6116fc565b604051806060016040528060008152602001600081526020017fffffffffffffffffffffffffffffffffffffffffffffffffffffffffffffffff8152509050606084604051908082528060200260200182016040528015610e2857816020015b610e15611765565b815260200190600190039081610e0d5790505b5090508181935093505050915091565b6000610e4261171d565b8251846020015110610e7457600083600185510381518110610e6057fe5b602002602001015180905091509150610ef8565b610e7c61171d565b6040518060c0016040528060006004811115610e9457fe5b81526020016000815260200160001515815260200160008152602001600015158152602001600060ff1681525090508084866020015181518110610ed457fe5b60200260200101819052508460200180518091906001018152505060018192509250505b9250929050565b600080846000015190506000610f1361171d565b866000018051809190600101815250505b84518760000151101561137d57600085886000015181518110610f4357fe5b602001015160f81c60f81b90507f2200000000000000000000000000000000000000000000000000000000000000817effffffffffffffffffffffffffffffffffffffffffffffffffffffffffffff19161415610fe957610fa48888610e38565b809350819450505082610fc85783886000018181525050600394505050505061138f565b610fdc826003600187018b6000015161168b565b600094505050505061138f565b605c8160f81c60ff16148015611006575085516001896000015101105b1561136657876000018051809190600101815250507f22000000000000000000000000000000000000000000000000000000000000008689600001518151811061104c57fe5b602001015160f81c60f81b7effffffffffffffffffffffffffffffffffffffffffffffffffffffffffffff191614806110e057507f2f00000000000000000000000000000000000000000000000000000000000000868960000151815181106110b157fe5b602001015160f81c60f81b7effffffffffffffffffffffffffffffffffffffffffffffffffffffffffffff1916145b8061114657507f5c000000000000000000000000000000000000000000000000000000000000008689600001518151811061111757fe5b602001015160f81c60f81b7effffffffffffffffffffffffffffffffffffffffffffffffffffffffffffff1916145b806111ac57507f66000000000000000000000000000000000000000000000000000000000000008689600001518151811061117d57fe5b602001015160f81c60f81b7effffffffffffffffffffffffffffffffffffffffffffffffffffffffffffff1916145b8061121257507f7200000000000000000000000000000000000000000000000000000000000000868960000151815181106111e357fe5b602001015160f81c60f81b7effffffffffffffffffffffffffffffffffffffffffffffffffffffffffffff1916145b8061127857507f6e000000000000000000000000000000000000000000000000000000000000008689600001518151811061124957fe5b602001015160f81c60f81b7effffffffffffffffffffffffffffffffffffffffffffffffffffffffffffff1916145b806112de57507f6200000000000000000000000000000000000000000000000000000000000000868960000151815181106112af57fe5b602001015160f81c60f81b7effffffffffffffffffffffffffffffffffffffffffffffffffffffffffffff1916145b8061134457507f74000000000000000000000000000000000000000000000000000000000000008689600001518151811061131557fe5b602001015160f81c60f81b7effffffffffffffffffffffffffffffffffffffffffffffffffffffffffffff1916145b1561134f5750611368565b83886000018181525050600194505050505061138f565b505b86600001805180919060010181525050610f24565b82876000018181525050600293505050505b9392505050565b600080600090506000856000015190506000806113b161171d565b5b86518960000151101561160c57868960000151815181106113cf57fe5b602001015160f81c60f81b92507f2000000000000000000000000000000000000000000000000000000000000000837effffffffffffffffffffffffffffffffffffffffffffffffffffffffffffff1916148061146d57507f0900000000000000000000000000000000000000000000000000000000000000837effffffffffffffffffffffffffffffffffffffffffffffffffffffffffffff1916145b806114b957507f0a00000000000000000000000000000000000000000000000000000000000000837effffffffffffffffffffffffffffffffffffffffffffffffffffffffffffff1916145b8061150557507f0d00000000000000000000000000000000000000000000000000000000000000837effffffffffffffffffffffffffffffffffffffffffffffffffffffffffffff1916145b8061155157507f2c00000000000000000000000000000000000000000000000000000000000000837effffffffffffffffffffffffffffffffffffffffffffffffffffffffffffff1916145b806115815750607d60f81b837effffffffffffffffffffffffffffffffffffffffffffffffffffffffffffff1916145b806115b15750605d60f81b837effffffffffffffffffffffffffffffffffffffffffffffffffffffffffffff1916145b156115bf576001945061160c565b60208360f81c60ff1610806115da5750607f8360f81c60ff16115b156115f75783896000018181525050600195505050505050611684565b886000018051809190600101815250506113b2565b846116295783896000018181525050600295505050505050611684565b6116338989610e38565b8092508193505050816116585783896000018181525050600395505050505050611684565b611669816004868c6000015161168b565b88600001805180919060019003815250506000955050505050505b9392505050565b828460000190600481111561169c57fe5b908160048111156116a957fe5b8152505081846020018181525050600184604001901515908115158152505080846060018181525050600184608001901515908115158152505060008460a0019060ff16908160ff168152505050505050565b60405180606001604052806000815260200160008152602001600081525090565b6040518060c001604052806000600481111561173557fe5b81526020016000815260200160001515815260200160008152602001600015158152602001600060ff1681525090565b6040518060c001604052806000600481111561177d57fe5b81526020016000815260200160001515815260200160008152602001600015158152602001600060ff1681525090565b6000813590506117bc8161194e565b92915050565b600082601f8301126117d357600080fd5b81356117e66117e1826118d7565b6118aa565b9150808252602083016020830185838301111561180257600080fd5b61180d83828461193f565b50505092915050565b60006020828403121561182857600080fd5b6000611836848285016117ad565b91505092915050565b60006020828403121561185157600080fd5b600082013567ffffffffffffffff81111561186b57600080fd5b611877848285016117c2565b91505092915050565b61188981611935565b82525050565b60006020820190506118a46000830184611880565b92915050565b6000604051905081810181811067ffffffffffffffff821117156118cd57600080fd5b8060405250919050565b600067ffffffffffffffff8211156118ee57600080fd5b601f19601f8301169050602081019050919050565b600061190e82611915565b9050919050565b600073ffffffffffffffffffffffffffffffffffffffff82169050919050565b6000819050919050565b82818337600083830152505050565b61195781611903565b811461196257600080fd5b5056fea265627a7a723058200b6aa675e3e1e0320984e01883fb7d667ba8de592fa110e5c020d8d3d05921446c6578706572696d656e74616cf500377b20226b657931223a207b20226b6579312e31223a202276616c7565222c20226b6579312e32223a20332c20226b6579312e33223a2074727565207d207d",
  "source": "pragma solidity ^0.5.7;\npragma experimental ABIEncoderV2;\n\nimport \"jsmnsol-lib/JsmnSolLib.sol\";\n\ncontract SmellTracker{\n\n    string json = \"{ \\\"key1\\\": { \\\"key1.1\\\": \\\"value\\\", \\\"key1.2\\\": 3, \\\"key1.3\\\": true } }\";\n    mapping (address => uint) public task;\n    bool hasBeenMapped = false;\n    \n    constructor() public{\n        \n    }\n    \n    function checkSmells(string memory smellJson) public returns (uint){\n        \n        uint returnCode;\n        JsmnSolLib.Token[] memory tokens;\n        uint actualNumber;\n        \n        //Pass string containing JSON, & maximum number of tokens\n        (returnCode, tokens, actualNumber) = JsmnSolLib.parse(json, 10);\n        \n        return 69;\n    }\n\n}",
  "sourcePath": "/Users/LaunchZone/Truffle/Raptor/contracts/SmellTracker.sol",
  "compiler": {
    "name": "solc",
    "version": "0.5.8+commit.23d335f2.Emscripten.clang"
  },
  "schemaVersion": "3.0.16",
  "updatedAt": "2019-11-23T21:00:00.344Z",
  "devdoc": {
    "methods": {}
  },
  "userdoc": {
    "methods": {}
  }
}