{
  "contractName": "SmellTracker",
  "abi": [
    {
      "constant": true,
      "inputs": [
        {
          "name": "",
          "type": "string"
        }
      ],
      "name": "smellBase",
      "outputs": [
        {
          "name": "",
          "type": "uint256"
        }
      ],
      "payable": false,
      "stateMutability": "view",
      "type": "function"
    },
    {
      "inputs": [],
      "payable": false,
      "stateMutability": "nonpayable",
      "type": "constructor"
    },
    {
      "constant": false,
      "inputs": [],
      "name": "reloadReport",
      "outputs": [],
      "payable": false,
      "stateMutability": "nonpayable",
      "type": "function"
    },
    {
      "constant": false,
      "inputs": [],
      "name": "getReport",
      "outputs": [
        {
          "name": "",
          "type": "string"
        }
      ],
      "payable": false,
      "stateMutability": "nonpayable",
      "type": "function"
    },
    {
      "constant": false,
      "inputs": [
        {
          "name": "json",
          "type": "string"
        },
        {
          "name": "hasMappedInitial",
          "type": "bool"
        }
      ],
      "name": "checkSmellsF",
      "outputs": [
        {
          "name": "",
          "type": "uint256"
        }
      ],
      "payable": false,
      "stateMutability": "nonpayable",
      "type": "function"
    },
    {
      "constant": false,
      "inputs": [],
      "name": "getSmellNumber",
      "outputs": [
        {
          "name": "",
          "type": "uint256"
        }
      ],
      "payable": false,
      "stateMutability": "nonpayable",
      "type": "function"
    }
  ],
  "bytecode": "0x60806040526000600260006101000a81548160ff02191690831515021790555034801561002b57600080fd5b506000600181905550612529806100436000396000f3fe608060405234801561001057600080fd5b50600436106100575760003560e01c8063184c8b111461005c57806368d745c01461008c578063a568ad6314610096578063b9204f02146100b4578063e4085d67146100e4575b600080fd5b6100766004803603610071919081019061201c565b610102565b6040516100839190612182565b60405180910390f35b610094610594565b005b61009e6105b1565b6040516100ab9190612182565b60405180910390f35b6100ce60048036036100c99190810190611fdb565b6105bb565b6040516100db9190612182565b60405180910390f35b6100ec6105e9565b6040516100f99190612140565b60405180910390f35b60008060606000610114866096610645565b80935081945082955050505060008314610163576040517f08c379a000000000000000000000000000000000000000000000000000000000815260040161015a90612162565b60405180910390fd5b60008090506000809050600080905060608060008090505b8681101561057c57851561040f576101dc8c89838151811061019957fe5b60200260200101516040518060400160405280600381526020017f6b65790000000000000000000000000000000000000000000000000000000000815250611269565b1561022f576102208c8960018401815181106101f457fe5b6020026020010151602001518a600185018151811061020f57fe5b602002602001015160600151611292565b9250808060010191505061040a565b6102828c89838151811061023f57fe5b60200260200101516040518060400160405280600681526020017f7374617475730000000000000000000000000000000000000000000000000000815250611269565b15610409576102c68c89600184018151811061029a57fe5b6020026020010151602001518a60018501815181106102b557fe5b602002602001015160600151611292565b915080806001019150506000610311836040518060400160405280600481526020017f4f50454e0000000000000000000000000000000000000000000000000000000081525061134e565b1415610358578a61035357600160008460405161032e9190612129565b9081526020016040518091039020819055506001600081548092919060010191905055505b610408565b6000610399836040518060400160405280600681526020017f434c4f534544000000000000000000000000000000000000000000000000000081525061134e565b1415610407578a80156103ca575060016000846040516103b99190612129565b908152602001604051809103902054145b1561040657600080846040516103e09190612129565b908152602001604051809103902081905550600160008154809291906001900391905055505b5b5b5b5b61056f565b6003600481111561041c57fe5b88828151811061042857fe5b602002602001015160000151600481111561043f57fe5b141561056e5760606104808d8a848151811061045757fe5b6020026020010151602001518b858151811061046f57fe5b602002602001015160600151611292565b905060006104c3826040518060400160405280600681526020017f697373756573000000000000000000000000000000000000000000000000000081525061134e565b1480156105005750600260048111156104d857fe5b8960018401815181106104e757fe5b60200260200101516000015160048111156104fe57fe5b145b801561053c57506001600481111561051457fe5b89600284018151811061052357fe5b602002602001015160000151600481111561053a57fe5b145b1561056c5760028201915081955088828151811061055657fe5b602002602001015160a0015160ff169450600196505b505b5b808060010191505061017b565b50600199506001549850505050505050505092915050565b6001600260006101000a81548160ff021916908315150217905550565b6000600154905090565b6000818051602081018201805184825260208301602085012081835280955050505050506000915090505481565b6060600260009054906101000a900460ff16156106235760405180610140016040528061011481526020016123dc61011491399050610642565b60405180610140016040528061011281526020016122ca610112913990505b90565b6000606060006060859050600061065a611e6d565b6106638761150c565b809650819250505060008082602001519050600061067f611e8e565b5b86518560000151101561124c5760008786600001518151811061069f57fe5b602001015160f81c60f81b9050607b60f81b817effffffffffffffffffffffffffffffffffffffffffffffffffffffffffffff191614806107055750605b60f81b817effffffffffffffffffffffffffffffffffffffffffffffffffffffffffffff1916145b1561082b57838060010194505061071c868b6115a9565b8093508198505050866107445760038a60008090509a509a509a505050505050505050611262565b7fffffffffffffffffffffffffffffffffffffffffffffffffffffffffffffffff86604001511461079d578986604001518151811061077f57fe5b602002602001015160a001805180919060010160ff1660ff16815250505b607b60f81b817effffffffffffffffffffffffffffffffffffffffffffffffffffffffffffff1916146107d15760026107d4565b60015b826000019060048111156107e457fe5b908160048111156107f157fe5b8152505085600001518260200181815250506001826040019015159081151581525050600186602001510386604001818152505050611237565b607d60f81b817effffffffffffffffffffffffffffffffffffffffffffffffffffffffffffff191614806108845750605d60f81b817effffffffffffffffffffffffffffffffffffffffffffffffffffffffffffff1916145b15610aa5576000607d60f81b827effffffffffffffffffffffffffffffffffffffffffffffffffffffffffffff1916146108bf5760026108c2565b60015b90506000809050600188602001510394505b600085106109d1578b85815181106108e857fe5b602002602001015193508360400151801561090557508360800151155b156109c35781600481111561091657fe5b8460000151600481111561092657fe5b146109485760018c60008090509c509c509c5050505050505050505050611262565b7fffffffffffffffffffffffffffffffffffffffffffffffffffffffffffffffff88604001818152505060018860000151018c868151811061098657fe5b6020026020010151606001818152505060018c86815181106109a457fe5b60200260200101516080019015159081151581525050600190506109d1565b8480600190039550506108d4565b806109f35760018c60008090509c509c509c5050505050505050505050611262565b5b6000851115610a48578b8581518110610a0957fe5b6020026020010151935083604001518015610a2657508360800151155b15610a3a5784886040018181525050610a48565b8480600190039550506109f4565b6000851415610a9d578b8581518110610a5d57fe5b6020026020010151935083604001518015610a7a57508360800151155b15610a9c57846fffffffffffffffffffffffffffffffff168860400181815250505b5b505050611237565b7f2200000000000000000000000000000000000000000000000000000000000000817effffffffffffffffffffffffffffffffffffffffffffffffffffffffffffff19161415610b8557610afa868b8a611670565b945060008514610b1e57848a60008090509a509a509a505050505050505050611262565b83806001019450507fffffffffffffffffffffffffffffffffffffffffffffffffffffffffffffffff866040015114610b7f5789866040015181518110610b6157fe5b602002602001015160a001805180919060010160ff1660ff16815250505b50611237565b7f2000000000000000000000000000000000000000000000000000000000000000817effffffffffffffffffffffffffffffffffffffffffffffffffffffffffffff19161480610bfa5750601160f81b817effffffffffffffffffffffffffffffffffffffffffffffffffffffffffffff1916145b80610c2a5750601260f81b817effffffffffffffffffffffffffffffffffffffffffffffffffffffffffffff1916145b80610c5a5750601460f81b817effffffffffffffffffffffffffffffffffffffffffffffffffffffffffffff1916145b15610c655750611237565b7f3a00000000000000000000000000000000000000000000000000000000000000817effffffffffffffffffffffffffffffffffffffffffffffffffffffffffffff19161415610cc657600186602001510386604001818152505050611237565b7f2c00000000000000000000000000000000000000000000000000000000000000817effffffffffffffffffffffffffffffffffffffffffffffffffffffffffffff19161415610e9d577fffffffffffffffffffffffffffffffffffffffffffffffffffffffffffffffff866040015114158015610d76575060026004811115610d4c57fe5b8a876040015181518110610d5c57fe5b6020026020010151600001516004811115610d7357fe5b14155b8015610db4575060016004811115610d8a57fe5b8a876040015181518110610d9a57fe5b6020026020010151600001516004811115610db157fe5b14155b15610e9757600186602001510392505b60008310610e965760026004811115610dd957fe5b8a8481518110610de557fe5b6020026020010151600001516004811115610dfc57fe5b1480610e35575060016004811115610e1057fe5b8a8481518110610e1c57fe5b6020026020010151600001516004811115610e3357fe5b145b15610e8857898381518110610e4657fe5b6020026020010151604001518015610e735750898381518110610e6557fe5b602002602001015160800151155b15610e875782866040018181525050610e96565b5b828060019003935050610dc4565b5b50611237565b7f3000000000000000000000000000000000000000000000000000000000000000817effffffffffffffffffffffffffffffffffffffffffffffffffffffffffffff191610158015610f3157507f3900000000000000000000000000000000000000000000000000000000000000817effffffffffffffffffffffffffffffffffffffffffffffffffffffffffffff191611155b80610f7d57507f2d00000000000000000000000000000000000000000000000000000000000000817effffffffffffffffffffffffffffffffffffffffffffffffffffffffffffff1916145b80610fc957507f6600000000000000000000000000000000000000000000000000000000000000817effffffffffffffffffffffffffffffffffffffffffffffffffffffffffffff1916145b8061101557507f7400000000000000000000000000000000000000000000000000000000000000817effffffffffffffffffffffffffffffffffffffffffffffffffffffffffffff1916145b8061106157507f6e00000000000000000000000000000000000000000000000000000000000000817effffffffffffffffffffffffffffffffffffffffffffffffffffffffffffff1916145b156111b9577fffffffffffffffffffffffffffffffffffffffffffffffffffffffffffffffff86604001511461112357898660400151815181106110a157fe5b60200260200101519150600160048111156110b857fe5b826000015160048111156110c857fe5b14806111025750600360048111156110dc57fe5b826000015160048111156110ec57fe5b148015611101575060008260a0015160ff1614155b5b156111225760018a60008090509a509a509a505050505050505050611262565b5b61112e868b8a611b07565b94506000851461115257848a60008090509a509a509a505050505050505050611262565b83806001019450507fffffffffffffffffffffffffffffffffffffffffffffffffffffffffffffffff8660400151146111b3578986604001518151811061119557fe5b602002602001015160a001805180919060010160ff1660ff16815250505b50611237565b602060f81b817effffffffffffffffffffffffffffffffffffffffffffffffffffffffffffff1916101580156112155750607e60f81b817effffffffffffffffffffffffffffffffffffffffffffffffffffffffffffff191611155b156112355760018a60008090509a509a509a505050505050505050611262565b505b84600001805180919060010181525050610680565b6000898660200151995099509950505050505050505b9250925092565b6000806112886112828686602001518760600151611292565b8461134e565b1490509392505050565b60608084905060608484036040519080825280601f01601f1916602001820160405280156112cf5781602001600182028038833980820191505090505b50905060008590505b84811015611341578281815181106112ec57fe5b602001015160f81c60f81b828783038151811061130557fe5b60200101907effffffffffffffffffffffffffffffffffffffffffffffffffffffffffffff1916908160001a90535080806001019150506112d8565b5080925050509392505050565b600060608390506060839050600082519050808251101561136e57815190505b60008090505b818110156114b25782818151811061138857fe5b602001015160f81c60f81b7effffffffffffffffffffffffffffffffffffffffffffffffffffffffffffff19168482815181106113c157fe5b602001015160f81c60f81b7effffffffffffffffffffffffffffffffffffffffffffffffffffffffffffff19161015611420577fffffffffffffffffffffffffffffffffffffffffffffffffffffffffffffffff945050505050611506565b82818151811061142c57fe5b602001015160f81c60f81b7effffffffffffffffffffffffffffffffffffffffffffffffffffffffffffff191684828151811061146557fe5b602001015160f81c60f81b7effffffffffffffffffffffffffffffffffffffffffffffffffffffffffffff191611156114a5576001945050505050611506565b8080600101915050611374565b508151835110156114e8577fffffffffffffffffffffffffffffffffffffffffffffffffffffffffffffffff9350505050611506565b8151835111156114fe5760019350505050611506565b600093505050505b92915050565b611514611e6d565b606061151e611e6d565b604051806060016040528060008152602001600081526020017fffffffffffffffffffffffffffffffffffffffffffffffffffffffffffffffff815250905060608460405190808252806020026020018201604052801561159957816020015b611586611ed6565b81526020019060019003908161157e5790505b5090508181935093505050915091565b60006115b3611e8e565b82518460200151106115e5576000836001855103815181106115d157fe5b602002602001015180905091509150611669565b6115ed611e8e565b6040518060c001604052806000600481111561160557fe5b81526020016000815260200160001515815260200160008152602001600015158152602001600060ff168152509050808486602001518151811061164557fe5b60200260200101819052508460200180518091906001018152505060018192509250505b9250929050565b600080846000015190506000611684611e8e565b866000018051809190600101815250505b845187600001511015611aee576000858860000151815181106116b457fe5b602001015160f81c60f81b90507f2200000000000000000000000000000000000000000000000000000000000000817effffffffffffffffffffffffffffffffffffffffffffffffffffffffffffff1916141561175a5761171588886115a9565b80935081945050508261173957838860000181815250506003945050505050611b00565b61174d826003600187018b60000151611dfc565b6000945050505050611b00565b605c8160f81c60ff16148015611777575085516001896000015101105b15611ad757876000018051809190600101815250507f2200000000000000000000000000000000000000000000000000000000000000868960000151815181106117bd57fe5b602001015160f81c60f81b7effffffffffffffffffffffffffffffffffffffffffffffffffffffffffffff1916148061185157507f2f000000000000000000000000000000000000000000000000000000000000008689600001518151811061182257fe5b602001015160f81c60f81b7effffffffffffffffffffffffffffffffffffffffffffffffffffffffffffff1916145b806118b757507f5c000000000000000000000000000000000000000000000000000000000000008689600001518151811061188857fe5b602001015160f81c60f81b7effffffffffffffffffffffffffffffffffffffffffffffffffffffffffffff1916145b8061191d57507f6600000000000000000000000000000000000000000000000000000000000000868960000151815181106118ee57fe5b602001015160f81c60f81b7effffffffffffffffffffffffffffffffffffffffffffffffffffffffffffff1916145b8061198357507f72000000000000000000000000000000000000000000000000000000000000008689600001518151811061195457fe5b602001015160f81c60f81b7effffffffffffffffffffffffffffffffffffffffffffffffffffffffffffff1916145b806119e957507f6e00000000000000000000000000000000000000000000000000000000000000868960000151815181106119ba57fe5b602001015160f81c60f81b7effffffffffffffffffffffffffffffffffffffffffffffffffffffffffffff1916145b80611a4f57507f620000000000000000000000000000000000000000000000000000000000000086896000015181518110611a2057fe5b602001015160f81c60f81b7effffffffffffffffffffffffffffffffffffffffffffffffffffffffffffff1916145b80611ab557507f740000000000000000000000000000000000000000000000000000000000000086896000015181518110611a8657fe5b602001015160f81c60f81b7effffffffffffffffffffffffffffffffffffffffffffffffffffffffffffff1916145b15611ac05750611ad9565b838860000181815250506001945050505050611b00565b505b86600001805180919060010181525050611695565b82876000018181525050600293505050505b9392505050565b60008060009050600085600001519050600080611b22611e8e565b5b865189600001511015611d7d5786896000015181518110611b4057fe5b602001015160f81c60f81b92507f2000000000000000000000000000000000000000000000000000000000000000837effffffffffffffffffffffffffffffffffffffffffffffffffffffffffffff19161480611bde57507f0900000000000000000000000000000000000000000000000000000000000000837effffffffffffffffffffffffffffffffffffffffffffffffffffffffffffff1916145b80611c2a57507f0a00000000000000000000000000000000000000000000000000000000000000837effffffffffffffffffffffffffffffffffffffffffffffffffffffffffffff1916145b80611c7657507f0d00000000000000000000000000000000000000000000000000000000000000837effffffffffffffffffffffffffffffffffffffffffffffffffffffffffffff1916145b80611cc257507f2c00000000000000000000000000000000000000000000000000000000000000837effffffffffffffffffffffffffffffffffffffffffffffffffffffffffffff1916145b80611cf25750607d60f81b837effffffffffffffffffffffffffffffffffffffffffffffffffffffffffffff1916145b80611d225750605d60f81b837effffffffffffffffffffffffffffffffffffffffffffffffffffffffffffff1916145b15611d305760019450611d7d565b60208360f81c60ff161080611d4b5750607f8360f81c60ff16115b15611d685783896000018181525050600195505050505050611df5565b88600001805180919060010181525050611b23565b84611d9a5783896000018181525050600295505050505050611df5565b611da489896115a9565b809250819350505081611dc95783896000018181525050600395505050505050611df5565b611dda816004868c60000151611dfc565b88600001805180919060019003815250506000955050505050505b9392505050565b8284600001906004811115611e0d57fe5b90816004811115611e1a57fe5b8152505081846020018181525050600184604001901515908115158152505080846060018181525050600184608001901515908115158152505060008460a0019060ff16908160ff168152505050505050565b60405180606001604052806000815260200160008152602001600081525090565b6040518060c0016040528060006004811115611ea657fe5b81526020016000815260200160001515815260200160008152602001600015158152602001600060ff1681525090565b6040518060c0016040528060006004811115611eee57fe5b81526020016000815260200160001515815260200160008152602001600015158152602001600060ff1681525090565b600081359050611f2d816122b2565b92915050565b600082601f830112611f4457600080fd5b8135611f57611f52826121ca565b61219d565b91508082526020830160208301858383011115611f7357600080fd5b611f7e83828461225f565b50505092915050565b600082601f830112611f9857600080fd5b8135611fab611fa6826121f6565b61219d565b91508082526020830160208301858383011115611fc757600080fd5b611fd283828461225f565b50505092915050565b600060208284031215611fed57600080fd5b600082013567ffffffffffffffff81111561200757600080fd5b61201384828501611f33565b91505092915050565b6000806040838503121561202f57600080fd5b600083013567ffffffffffffffff81111561204957600080fd5b61205585828601611f87565b925050602061206685828601611f1e565b9150509250929050565b600061207b82612222565b612085818561222d565b935061209581856020860161226e565b61209e816122a1565b840191505092915050565b60006120b482612222565b6120be818561223e565b93506120ce81856020860161226e565b80840191505092915050565b60006120e7600e8361222d565b91507f496e76616c6964207265706f72740000000000000000000000000000000000006000830152602082019050919050565b61212381612255565b82525050565b600061213582846120a9565b915081905092915050565b6000602082019050818103600083015261215a8184612070565b905092915050565b6000602082019050818103600083015261217b816120da565b9050919050565b6000602082019050612197600083018461211a565b92915050565b6000604051905081810181811067ffffffffffffffff821117156121c057600080fd5b8060405250919050565b600067ffffffffffffffff8211156121e157600080fd5b601f19601f8301169050602081019050919050565b600067ffffffffffffffff82111561220d57600080fd5b601f19601f8301169050602081019050919050565b600081519050919050565b600082825260208201905092915050565b600081905092915050565b60008115159050919050565b6000819050919050565b82818337600083830152505050565b60005b8381101561228c578082015181840152602081019050612271565b8381111561229b576000848401525b50505050565b6000601f19601f8301169050919050565b6122bb81612249565b81146122c657600080fd5b5056fe7b202022746f74616c223a34302c20202270223a312c2020227073223a3130302c202022706167696e67223a7b2020202270616765496e646578223a312c202020227061676553697a65223a3130302c20202022746f74616c223a343020207d2c2020226566666f7274546f74616c223a3234312c20202264656274546f74616c223a3234312c202022697373756573223a5b2020207b20202020226b6579223a22415736674858424574686c776c704f7078516467222c2020202022737461747573223a224f50454e222020207d2c2020207b20202020226b6579223a22415736674858424574686c776c704f7078516468222c2020202022737461747573223a224f50454e222020207d20205d207d207b202022746f74616c223a34302c20202270223a312c2020227073223a3130302c202022706167696e67223a7b2020202270616765496e646578223a312c202020227061676553697a65223a3130302c20202022746f74616c223a343020207d2c2020226566666f7274546f74616c223a3234312c20202264656274546f74616c223a3234312c202022697373756573223a5b2020207b20202020226b6579223a22415736674858424574686c776c704f7078516467222c2020202022737461747573223a22434c4f534544222020207d2c2020207b20202020226b6579223a22415736674858424574686c776c704f7078516468222c2020202022737461747573223a224f50454e222020207d20205d207d20a265627a7a72305820a3fa75ea970b0b8a7d455f34d59cf008ba55651381ac320eced3bc02efb0a1976c6578706572696d656e74616cf50037",
  "source": "pragma solidity ^0.5.7;\npragma experimental ABIEncoderV2;\n\nimport \"jsmnsol-lib/JsmnSolLib.sol\";\n\ncontract SmellTracker{\n\t\n\t//mapping containing current unresolved smells\n    mapping (string => uint) public smellBase;\n    uint issueCount;\n    //Flag indicating if initial smell report was mapped\n    \n    \n    constructor() public{\n        issueCount = 0;\n        //hasMappedInitial = false;\n    }\n    \n    \n    \n    /**\n\t\tcheckSmellsF()\n\t\t@param smellReport - JSON code report\n\t\t@return number of smells identified in report\n    **/\n    \n    bool hasReloaded = false;\n    \n    function reloadReport() public{\n\t\thasReloaded = true;\n\t}\n    \n    function getReport() public returns (string memory){\n\t\tif (hasReloaded){\n\t\t\treturn \"{  \\\"total\\\":40,  \\\"p\\\":1,  \\\"ps\\\":100,  \\\"paging\\\":{   \\\"pageIndex\\\":1,   \\\"pageSize\\\":100,   \\\"total\\\":40  },  \\\"effortTotal\\\":241,  \\\"debtTotal\\\":241,  \\\"issues\\\":[   {    \\\"key\\\":\\\"AW6gHXBEthlwlpOpxQdg\\\",    \\\"status\\\":\\\"CLOSED\\\"   },   {    \\\"key\\\":\\\"AW6gHXBEthlwlpOpxQdh\\\",    \\\"status\\\":\\\"OPEN\\\"   }  ] } \";\n\t\t}\n\t\treturn \"{  \\\"total\\\":40,  \\\"p\\\":1,  \\\"ps\\\":100,  \\\"paging\\\":{   \\\"pageIndex\\\":1,   \\\"pageSize\\\":100,   \\\"total\\\":40  },  \\\"effortTotal\\\":241,  \\\"debtTotal\\\":241,  \\\"issues\\\":[   {    \\\"key\\\":\\\"AW6gHXBEthlwlpOpxQdg\\\",    \\\"status\\\":\\\"OPEN\\\"   },   {    \\\"key\\\":\\\"AW6gHXBEthlwlpOpxQdh\\\",    \\\"status\\\":\\\"OPEN\\\"   }  ] } \";\n\t}\n    \n    \n    \n    function checkSmellsF(string memory json, bool hasMappedInitial) public returns (uint){\n    \n    \n\t\t//Fields to store return values of parsing call\n\t\tuint returnCode;\n\t\tJsmnSolLib.Token[] memory tokens;\n\t\tuint actualNumber;\n\t\t\n\t\t//Parse smell report. Pass string containing JSON, & maximum number of tokens\n\t\t(returnCode, tokens, actualNumber) = JsmnSolLib.parse(json, 150);\n\t\t\n\t\t//Check that parsing went smoothly\n\t\trequire(returnCode==0, \"Invalid report\");\n\t\t\n\t\t\n\t\t//Deconstruct\n\t\tbool insideIssue = false;\n\t\tuint issueIndex = 0;\n\t\tuint issueChildren = 0;\n\t\tstring memory issueKey;\n\t\tstring memory issueStatus;\n\t\tfor (uint tokenIndex = 0; tokenIndex<actualNumber; tokenIndex++){\n\t\t\t\n\t\t\tif (insideIssue){\n\t\t\t\t\n\t\t\t\t//Guard to break if outside issue zone\n\t\t\t\t/*\n\t\t\t\tif (tokenIndex-issueIndex>issueChildren){\n\t\t\t\t\ttokenIndex--;\n\t\t\t\t\tinsideIssue=false;\n\t\t\t\t\tbreak;\n\t\t\t\t}\n\t\t\t\t*/\n\t\t\t\t\n\t\t\t\t//Find key\n\t\t\t\tif (isToken(json, tokens[tokenIndex], \"key\")){\n\t\t\t\t\t\n\t\t\t\t\t//Get key\n\t\t\t\t\tissueKey = JsmnSolLib.getBytes(json, tokens[tokenIndex+1].start, tokens[tokenIndex+1].end);\n\t\t\t\t\ttokenIndex++;//Skip key value\n\t\t\t\t\t\n\t\t\t\t//Find status\n\t\t\t\t}else if (isToken(json, tokens[tokenIndex], \"status\")){\n\t\t\t\t\t\n\t\t\t\t\tissueStatus = JsmnSolLib.getBytes(json, tokens[tokenIndex+1].start, tokens[tokenIndex+1].end);\n\t\t\t\t\ttokenIndex++;//Skip status value\n\t\t\t\t\t\n\t\t\t\t\t//return issueStatus;\n\t\t\t\t\t\n\t\t\t\t\t//Check status for open\n\t\t\t\t\tif (JsmnSolLib.strCompare(issueStatus, \"OPEN\")==0){\n\t\t\t\t\t\t\n\t\t\t\t\t\tif (!hasMappedInitial){//goes into map\n\t\t\t\t\t\t\tsmellBase[issueKey] = 1;\n\t\t\t\t\t\t\tissueCount++;\n\t\t\t\t\t\t}\n\t\t\t\t\t\t\n\t\t\t\t\t}else if (JsmnSolLib.strCompare(issueStatus, \"CLOSED\")==0){\n\t\t\t\t\t\t\n\t\t\t\t\t\tif (hasMappedInitial && smellBase[issueKey]==1){//goes into map\n\t\t\t\t\t\t\tsmellBase[issueKey] = 0;\n\t\t\t\t\t\t\tissueCount--;\n\t\t\t\t\t\t}\n\t\t\t\t\t\t\n\t\t\t\t\t}\n\t\t\t\t\t\n\t\t\t\t\t//tokenIndex = issueIndex+issueChildren;\n\t\t\t\t\t//insideIssue = false;\n\t\t\t\t}\n\t\t\t\n\t\t\t}else if (tokens[tokenIndex].jsmnType==JsmnSolLib.JsmnType.STRING){\n\t\t\t\tstring memory value = JsmnSolLib.getBytes(json, tokens[tokenIndex].start, tokens[tokenIndex].end);\n\t\t\t\t\n\t\t\t\tif (JsmnSolLib.strCompare(value, \"issues\")==0 && tokens[tokenIndex+1].jsmnType==JsmnSolLib.JsmnType.ARRAY && tokens[tokenIndex+2].jsmnType==JsmnSolLib.JsmnType.OBJECT){\n\t\t\t\t\t\n\t\t\t\t\t//Position at issue object\n\t\t\t\t\ttokenIndex += 2;\n\t\t\t\t\t\n\t\t\t\t\t//Bookmark\n\t\t\t\t\tissueIndex = tokenIndex;\n\t\t\t\t\tissueChildren = tokens[tokenIndex].size;\n\t\t\t\t\t\n\t\t\t\t\t//set flag\n\t\t\t\t\tinsideIssue = true;\n\t\t\t\t}\n\t\t\t\t\n\t\t\t}\n\t\t\t\n\t\t}\n\t\t\n\t\thasMappedInitial = true;\n\t\t\n\t\treturn issueCount;\n\t}\n\n\t\n\n\tfunction getSmellNumber() public returns (uint){\n\t\treturn issueCount;\n\t}\n\t\n\n\tfunction isToken(string memory json, JsmnSolLib.Token memory token, string memory str) private returns (bool){\n\t\t\n\t\treturn JsmnSolLib.strCompare(JsmnSolLib.getBytes(json, token.start, token.end), str)==0;\n\t}\n\n}\n",
  "sourcePath": "/Users/LaunchZone/Truffle/Nose/Nose/contracts/SmellTracker.sol",
  "compiler": {
    "name": "solc",
    "version": "0.5.8+commit.23d335f2.Emscripten.clang"
  },
  "schemaVersion": "3.0.16",
  "updatedAt": "2019-11-26T02:00:16.611Z",
  "devdoc": {
    "methods": {}
  },
  "userdoc": {
    "methods": {}
  }
}