{
  "contractName": "Tasks",
  "abi": [
    {
      "constant": true,
      "inputs": [
        {
          "name": "",
          "type": "address"
        }
      ],
      "name": "task",
      "outputs": [
        {
          "name": "",
          "type": "uint256"
        }
      ],
      "payable": false,
      "stateMutability": "view",
      "type": "function"
    },
    {
      "inputs": [],
      "payable": false,
      "stateMutability": "nonpayable",
      "type": "constructor"
    },
    {
      "constant": true,
      "inputs": [],
      "name": "getDay",
      "outputs": [
        {
          "name": "",
          "type": "uint256"
        }
      ],
      "payable": false,
      "stateMutability": "view",
      "type": "function"
    },
    {
      "constant": false,
      "inputs": [],
      "name": "assign",
      "outputs": [
        {
          "name": "",
          "type": "uint256"
        }
      ],
      "payable": true,
      "stateMutability": "payable",
      "type": "function"
    },
    {
      "constant": false,
      "inputs": [
        {
          "name": "taskid",
          "type": "uint256"
        }
      ],
      "name": "done",
      "outputs": [],
      "payable": false,
      "stateMutability": "nonpayable",
      "type": "function"
    }
  ],
  "bytecode": "0x608060405234801561001057600080fd5b50600180819055506004600281905550600080819055506103e0806100366000396000f3fe60806040526004361061003f5760003560e01c806312ae63971461004457806314ba5c091461006257806358a743c71461008d578063f1f1a3a8146100c8575b600080fd5b61004c61012d565b6040518082815260200191505060405180910390f35b34801561006e57600080fd5b50610077610210565b6040518082815260200191505060405180910390f35b34801561009957600080fd5b506100c6600480360360208110156100b057600080fd5b8101908080359060200190929190505050610239565b005b3480156100d457600080fd5b50610117600480360360208110156100eb57600080fd5b81019080803573ffffffffffffffffffffffffffffffffffffffff16906020019092919050505061039c565b6040518082815260200191505060405180910390f35b6000600154600254101561014057600080fd5b67016345785d8a0000341461015457600080fd5b6000600360003373ffffffffffffffffffffffffffffffffffffffff1673ffffffffffffffffffffffffffffffffffffffff16815260200190815260200160002054146101a057600080fd5b600154600360003373ffffffffffffffffffffffffffffffffffffffff1673ffffffffffffffffffffffffffffffffffffffff1681526020019081526020016000208190555060015460025414156101fa57426000819055505b6001600081548092919060010191905055905090565b60008060005414610231576201518060005442038161022b57fe5b04610234565b60005b905090565b600080541161024757600080fd5b6006610251610210565b111561025c57600080fd5b6000600360003373ffffffffffffffffffffffffffffffffffffffff1673ffffffffffffffffffffffffffffffffffffffff16815260200190815260200160002054116102a857600080fd5b80600360003373ffffffffffffffffffffffffffffffffffffffff1673ffffffffffffffffffffffffffffffffffffffff1681526020019081526020016000205414806102fc575060046102fa610210565b115b61030557600080fd5b6000600360003373ffffffffffffffffffffffffffffffffffffffff1673ffffffffffffffffffffffffffffffffffffffff168152602001908152602001600020819055503373ffffffffffffffffffffffffffffffffffffffff166108fc67016345785d8a00009081150290604051600060405180830381858888f19350505050158015610398573d6000803e3d6000fd5b5050565b6003602052806000526040600020600091509050548156fea165627a7a723058200edfc18b3d25b0f88b870c30002f8676773ca097609d66106c5a128db174d6c60029",
  "source": "pragma solidity ^0.5.7;\n\ncontract Tasks{\n    \n    uint constant taskAssignCost = 100000000000000000;\n    uint constant dayLength = 86400;\n    uint private startTime;\n    \n    uint currentTask;\n    uint taskCount;\n    \n    mapping (address => uint) public task;\n    \n    constructor() public{\n        currentTask = 1;\n        taskCount = 4;\n        startTime = 0;//0 means the counter has not started, should be set after all tasks have been assigned\n    }\n    \n    //Get current day (beginning from 0 at contract deployment)\n    function getDay() public view returns (uint){\n        return startTime==0? 0 : (now-startTime)/dayLength;\n    }\n    \n    //=====\n    //State modification\n    //=====\n    \n    function assign() public payable returns (uint){\n        require(taskCount>=currentTask);//See that there are tasks to assign\n        require(msg.value==taskAssignCost);//Some cash necessary\n        require(task[msg.sender] == 0);//See that no task has been assigned to this guy\n        \n        //Assign\n        task[msg.sender] = currentTask;\n        \n        //Start counter by recording current time\n        if (taskCount==currentTask){\n            startTime = now;\n        }\n        \n        //Return task id\n        return currentTask++;\n    }\n    \n    function done(uint taskid) public{\n        require(startTime>0);//See that counter has started\n        require(getDay()<=6);//Week has not ended\n        require(task[msg.sender]>0);//Check if task is valid\n        require(task[msg.sender]==taskid || getDay()>4);//Task is owned by sender, or 5th day has ended\n        \n        //Deassign task\n        task[msg.sender] = 0;\n        \n        //Transfer reward\n        msg.sender.transfer(taskAssignCost);//Money back guaranteed!\n    }\n    \n}",
  "sourcePath": "/Users/LaunchZone/Truffle/Raptor/contracts/Raptor.sol",
  "compiler": {
    "name": "solc",
    "version": "0.5.8+commit.23d335f2.Emscripten.clang"
  },
  "schemaVersion": "3.0.16",
  "updatedAt": "2019-11-23T12:11:46.717Z",
  "devdoc": {
    "methods": {}
  },
  "userdoc": {
    "methods": {}
  }
}